{
  "address": "0x2A8A33Af953B989F2E1bB900beEa420312Bb8026",
  "abi": [
    {
      "inputs": [],
      "stateMutability": "nonpayable",
      "type": "constructor"
    },
    {
      "anonymous": false,
      "inputs": [
        {
          "indexed": true,
          "internalType": "address",
          "name": "owner",
          "type": "address"
        },
        {
          "indexed": true,
          "internalType": "address",
          "name": "approved",
          "type": "address"
        },
        {
          "indexed": true,
          "internalType": "uint256",
          "name": "tokenId",
          "type": "uint256"
        }
      ],
      "name": "Approval",
      "type": "event"
    },
    {
      "anonymous": false,
      "inputs": [
        {
          "indexed": true,
          "internalType": "address",
          "name": "owner",
          "type": "address"
        },
        {
          "indexed": true,
          "internalType": "address",
          "name": "operator",
          "type": "address"
        },
        {
          "indexed": false,
          "internalType": "bool",
          "name": "approved",
          "type": "bool"
        }
      ],
      "name": "ApprovalForAll",
      "type": "event"
    },
    {
      "anonymous": false,
      "inputs": [
        {
          "indexed": true,
          "internalType": "address",
          "name": "from",
          "type": "address"
        },
        {
          "indexed": true,
          "internalType": "address",
          "name": "to",
          "type": "address"
        },
        {
          "indexed": true,
          "internalType": "uint256",
          "name": "tokenId",
          "type": "uint256"
        }
      ],
      "name": "Transfer",
      "type": "event"
    },
    {
      "inputs": [
        {
          "internalType": "address",
          "name": "to",
          "type": "address"
        },
        {
          "internalType": "uint256",
          "name": "tokenId",
          "type": "uint256"
        }
      ],
      "name": "approve",
      "outputs": [],
      "stateMutability": "nonpayable",
      "type": "function"
    },
    {
      "inputs": [
        {
          "internalType": "address",
          "name": "owner",
          "type": "address"
        }
      ],
      "name": "balanceOf",
      "outputs": [
        {
          "internalType": "uint256",
          "name": "",
          "type": "uint256"
        }
      ],
      "stateMutability": "view",
      "type": "function"
    },
    {
      "inputs": [
        {
          "internalType": "uint256",
          "name": "tokenId",
          "type": "uint256"
        }
      ],
      "name": "getApproved",
      "outputs": [
        {
          "internalType": "address",
          "name": "",
          "type": "address"
        }
      ],
      "stateMutability": "view",
      "type": "function"
    },
    {
      "inputs": [
        {
          "internalType": "address",
          "name": "owner",
          "type": "address"
        },
        {
          "internalType": "address",
          "name": "operator",
          "type": "address"
        }
      ],
      "name": "isApprovedForAll",
      "outputs": [
        {
          "internalType": "bool",
          "name": "",
          "type": "bool"
        }
      ],
      "stateMutability": "view",
      "type": "function"
    },
    {
      "inputs": [
        {
          "internalType": "uint256",
          "name": "tokenId",
          "type": "uint256"
        },
        {
          "internalType": "address",
          "name": "to",
          "type": "address"
        }
      ],
      "name": "map",
      "outputs": [],
      "stateMutability": "nonpayable",
      "type": "function"
    },
    {
      "inputs": [],
      "name": "name",
      "outputs": [
        {
          "internalType": "string",
          "name": "",
          "type": "string"
        }
      ],
      "stateMutability": "view",
      "type": "function"
    },
    {
      "inputs": [
        {
          "internalType": "uint256",
          "name": "tokenId",
          "type": "uint256"
        }
      ],
      "name": "ownerOf",
      "outputs": [
        {
          "internalType": "address",
          "name": "",
          "type": "address"
        }
      ],
      "stateMutability": "view",
      "type": "function"
    },
    {
      "inputs": [
        {
          "internalType": "address",
          "name": "owner",
          "type": "address"
        },
        {
          "internalType": "bytes",
          "name": "name",
          "type": "bytes"
        }
      ],
      "name": "register",
      "outputs": [
        {
          "internalType": "uint256",
          "name": "",
          "type": "uint256"
        }
      ],
      "stateMutability": "nonpayable",
      "type": "function"
    },
    {
      "inputs": [
        {
          "internalType": "bytes",
          "name": "",
          "type": "bytes"
        }
      ],
      "name": "registered",
      "outputs": [
        {
          "internalType": "bool",
          "name": "",
          "type": "bool"
        }
      ],
      "stateMutability": "view",
      "type": "function"
    },
    {
      "inputs": [
        {
          "internalType": "bytes",
          "name": "",
          "type": "bytes"
        }
      ],
      "name": "registry",
      "outputs": [
        {
          "internalType": "uint256",
          "name": "",
          "type": "uint256"
        }
      ],
      "stateMutability": "view",
      "type": "function"
    },
    {
      "inputs": [
        {
          "internalType": "uint256",
          "name": "",
          "type": "uint256"
        }
      ],
      "name": "resolver",
      "outputs": [
        {
          "internalType": "address",
          "name": "",
          "type": "address"
        }
      ],
      "stateMutability": "view",
      "type": "function"
    },
    {
      "inputs": [
        {
          "internalType": "address",
          "name": "from",
          "type": "address"
        },
        {
          "internalType": "address",
          "name": "to",
          "type": "address"
        },
        {
          "internalType": "uint256",
          "name": "tokenId",
          "type": "uint256"
        }
      ],
      "name": "safeTransferFrom",
      "outputs": [],
      "stateMutability": "nonpayable",
      "type": "function"
    },
    {
      "inputs": [
        {
          "internalType": "address",
          "name": "from",
          "type": "address"
        },
        {
          "internalType": "address",
          "name": "to",
          "type": "address"
        },
        {
          "internalType": "uint256",
          "name": "tokenId",
          "type": "uint256"
        },
        {
          "internalType": "bytes",
          "name": "data",
          "type": "bytes"
        }
      ],
      "name": "safeTransferFrom",
      "outputs": [],
      "stateMutability": "nonpayable",
      "type": "function"
    },
    {
      "inputs": [
        {
          "internalType": "address",
          "name": "operator",
          "type": "address"
        },
        {
          "internalType": "bool",
          "name": "approved",
          "type": "bool"
        }
      ],
      "name": "setApprovalForAll",
      "outputs": [],
      "stateMutability": "nonpayable",
      "type": "function"
    },
    {
      "inputs": [
        {
          "internalType": "bytes4",
          "name": "interfaceId",
          "type": "bytes4"
        }
      ],
      "name": "supportsInterface",
      "outputs": [
        {
          "internalType": "bool",
          "name": "",
          "type": "bool"
        }
      ],
      "stateMutability": "view",
      "type": "function"
    },
    {
      "inputs": [],
      "name": "symbol",
      "outputs": [
        {
          "internalType": "string",
          "name": "",
          "type": "string"
        }
      ],
      "stateMutability": "view",
      "type": "function"
    },
    {
      "inputs": [
        {
          "internalType": "uint256",
          "name": "tokenId",
          "type": "uint256"
        }
      ],
      "name": "tokenURI",
      "outputs": [
        {
          "internalType": "string",
          "name": "",
          "type": "string"
        }
      ],
      "stateMutability": "view",
      "type": "function"
    },
    {
      "inputs": [
        {
          "internalType": "address",
          "name": "from",
          "type": "address"
        },
        {
          "internalType": "address",
          "name": "to",
          "type": "address"
        },
        {
          "internalType": "uint256",
          "name": "tokenId",
          "type": "uint256"
        }
      ],
      "name": "transferFrom",
      "outputs": [],
      "stateMutability": "nonpayable",
      "type": "function"
    }
  ],
  "transactionHash": "0x980ff3a20f4c542bfb22f6e649cc742a38dc94d8f8735651678246dd84b0c02e",
  "args": [],
  "numDeployments": 1,
  "solcInputHash": "4afe04f12097b5b349d9d937c5a37156",
  "bytecode": "0x60806040523480156200001157600080fd5b506040518060400160405280601381526020017f426974636f696e204e616d652053797374656d0000000000000000000000000081525060405180604001604052806003815260200162424e5360e81b815250816000908162000075919062000132565b50600162000084828262000132565b505050620001fe565b634e487b7160e01b600052604160045260246000fd5b600181811c90821680620000b857607f821691505b602082108103620000d957634e487b7160e01b600052602260045260246000fd5b50919050565b601f8211156200012d57600081815260208120601f850160051c81016020861015620001085750805b601f850160051c820191505b81811015620001295782815560010162000114565b5050505b505050565b81516001600160401b038111156200014e576200014e6200008d565b62000166816200015f8454620000a3565b84620000df565b602080601f8311600181146200019e5760008415620001855750858301515b600019600386901b1c1916600185901b17855562000129565b600085815260208120601f198616915b82811015620001cf57888601518255948401946001909101908401620001ae565b5085821015620001ee5787850151600019600388901b60f8161c191681555b5050505050600190811b01905550565b61156c806200020e6000396000f3fe608060405234801561001057600080fd5b50600436106101165760003560e01c80635aca952e116100a2578063a15d581c11610071578063a15d581c14610277578063a22cb465146102a2578063b88d4fde146102b5578063c87b56dd146102c8578063e985e9c5146102db57600080fd5b80635aca952e1461021b5780636352211e1461024957806370a082311461025c57806395d89b411461026f57600080fd5b8063108eaa4e116100e9578063108eaa4e1461019857806323b872dd146101c157806324b8fbf6146101d4578063376a2b69146101f557806342842e0e1461020857600080fd5b806301ffc9a71461011b57806306fdde0314610143578063081812fc14610158578063095ea7b314610183575b600080fd5b61012e61012936600461101d565b610317565b60405190151581526020015b60405180910390f35b61014b610369565b60405161013a919061108a565b61016b61016636600461109d565b6103fb565b6040516001600160a01b03909116815260200161013a565b6101966101913660046110d2565b610422565b005b61016b6101a636600461109d565b6009602052600090815260409020546001600160a01b031681565b6101966101cf3660046110fc565b61053c565b6101e76101e23660046111db565b61056d565b60405190815260200161013a565b610196610203366004611229565b61063e565b6101966102163660046110fc565b610692565b61012e610229366004611255565b805160208183018101805160088252928201919093012091525460ff1681565b61016b61025736600461109d565b6106ad565b6101e761026a36600461128a565b61070d565b61014b610793565b6101e7610285366004611255565b805160208183018101805160078252928201919093012091525481565b6101966102b03660046112a5565b6107a2565b6101966102c33660046112e1565b6107b1565b61014b6102d636600461109d565b6107e9565b61012e6102e9366004611349565b6001600160a01b03918216600090815260056020908152604080832093909416825291909152205460ff1690565b60006001600160e01b031982166380ac58cd60e01b148061034857506001600160e01b03198216635b5e139f60e01b145b8061036357506301ffc9a760e01b6001600160e01b03198316145b92915050565b60606000805461037890611373565b80601f01602080910402602001604051908101604052809291908181526020018280546103a490611373565b80156103f15780601f106103c6576101008083540402835291602001916103f1565b820191906000526020600020905b8154815290600101906020018083116103d457829003601f168201915b5050505050905090565b60006104068261085c565b506000908152600460205260409020546001600160a01b031690565b600061042d826106ad565b9050806001600160a01b0316836001600160a01b03160361049f5760405162461bcd60e51b815260206004820152602160248201527f4552433732313a20617070726f76616c20746f2063757272656e74206f776e656044820152603960f91b60648201526084015b60405180910390fd5b336001600160a01b03821614806104bb57506104bb81336102e9565b61052d5760405162461bcd60e51b815260206004820152603d60248201527f4552433732313a20617070726f76652063616c6c6572206973206e6f7420746f60448201527f6b656e206f776e6572206f7220617070726f76656420666f7220616c6c0000006064820152608401610496565b61053783836108be565b505050565b610546338261092c565b6105625760405162461bcd60e51b8152600401610496906113ad565b6105378383836109ab565b600060088260405161057f91906113fa565b9081526040519081900360200190205460ff161561059c57600080fd5b60006105a760065490565b90506105b38482610b0f565b806007846040516105c491906113fa565b90815260200160405180910390208190555060016008846040516105e891906113fa565b9081526040805160209281900383019020805460ff191693151593909317909255600083815260099091522080546001600160a01b0319166001600160a01b0386161790556006805460010190555b9392505050565b610647826106ad565b6001600160a01b0316336001600160a01b03161461066457600080fd5b60009182526009602052604090912080546001600160a01b0319166001600160a01b03909216919091179055565b610537838383604051806020016040528060008152506107b1565b6000818152600260205260408120546001600160a01b0316806103635760405162461bcd60e51b8152602060048201526018602482015277115490cdcc8c4e881a5b9d985b1a59081d1bdad95b88125160421b6044820152606401610496565b60006001600160a01b0382166107775760405162461bcd60e51b815260206004820152602960248201527f4552433732313a2061646472657373207a65726f206973206e6f7420612076616044820152683634b21037bbb732b960b91b6064820152608401610496565b506001600160a01b031660009081526003602052604090205490565b60606001805461037890611373565b6107ad338383610c9a565b5050565b6107bb338361092c565b6107d75760405162461bcd60e51b8152600401610496906113ad565b6107e384848484610d68565b50505050565b60606107f48261085c565b600061080b60408051602081019091526000815290565b9050600081511161082b5760405180602001604052806000815250610637565b8061083584610d9b565b604051602001610846929190611416565b6040516020818303038152906040529392505050565b6000818152600260205260409020546001600160a01b03166108bb5760405162461bcd60e51b8152602060048201526018602482015277115490cdcc8c4e881a5b9d985b1a59081d1bdad95b88125160421b6044820152606401610496565b50565b600081815260046020526040902080546001600160a01b0319166001600160a01b03841690811790915581906108f3826106ad565b6001600160a01b03167f8c5be1e5ebec7d5bd14f71427d1e84f3dd0314c0f7b2291e5b200ac8c7c3b92560405160405180910390a45050565b600080610938836106ad565b9050806001600160a01b0316846001600160a01b0316148061097f57506001600160a01b0380821660009081526005602090815260408083209388168352929052205460ff165b806109a35750836001600160a01b0316610998846103fb565b6001600160a01b0316145b949350505050565b826001600160a01b03166109be826106ad565b6001600160a01b0316146109e45760405162461bcd60e51b815260040161049690611445565b6001600160a01b038216610a465760405162461bcd60e51b8152602060048201526024808201527f4552433732313a207472616e7366657220746f20746865207a65726f206164646044820152637265737360e01b6064820152608401610496565b826001600160a01b0316610a59826106ad565b6001600160a01b031614610a7f5760405162461bcd60e51b815260040161049690611445565b600081815260046020908152604080832080546001600160a01b03199081169091556001600160a01b0387811680865260038552838620805460001901905590871680865283862080546001019055868652600290945282852080549092168417909155905184937fddf252ad1be2c89b69c2b068fc378daa952ba7f163c4a11628f55a4df523b3ef91a4505050565b6001600160a01b038216610b655760405162461bcd60e51b815260206004820181905260248201527f4552433732313a206d696e7420746f20746865207a65726f20616464726573736044820152606401610496565b6000818152600260205260409020546001600160a01b031615610bca5760405162461bcd60e51b815260206004820152601c60248201527f4552433732313a20746f6b656e20616c7265616479206d696e746564000000006044820152606401610496565b6000818152600260205260409020546001600160a01b031615610c2f5760405162461bcd60e51b815260206004820152601c60248201527f4552433732313a20746f6b656e20616c7265616479206d696e746564000000006044820152606401610496565b6001600160a01b038216600081815260036020908152604080832080546001019055848352600290915280822080546001600160a01b0319168417905551839291907fddf252ad1be2c89b69c2b068fc378daa952ba7f163c4a11628f55a4df523b3ef908290a45050565b816001600160a01b0316836001600160a01b031603610cfb5760405162461bcd60e51b815260206004820152601960248201527f4552433732313a20617070726f766520746f2063616c6c6572000000000000006044820152606401610496565b6001600160a01b03838116600081815260056020908152604080832094871680845294825291829020805460ff191686151590811790915591519182527f17307eab39ab6107e8899845ad3d59bd9653f200f220920489ca2b5937696c31910160405180910390a3505050565b610d738484846109ab565b610d7f84848484610e2e565b6107e35760405162461bcd60e51b81526004016104969061148a565b60606000610da883610f2f565b600101905060008167ffffffffffffffff811115610dc857610dc8611138565b6040519080825280601f01601f191660200182016040528015610df2576020820181803683370190505b5090508181016020015b600019016f181899199a1a9b1b9c1cb0b131b232b360811b600a86061a8153600a8504945084610dfc57509392505050565b60006001600160a01b0384163b15610f2457604051630a85bd0160e11b81526001600160a01b0385169063150b7a0290610e729033908990889088906004016114dc565b6020604051808303816000875af1925050508015610ead575060408051601f3d908101601f19168201909252610eaa91810190611519565b60015b610f0a573d808015610edb576040519150601f19603f3d011682016040523d82523d6000602084013e610ee0565b606091505b508051600003610f025760405162461bcd60e51b81526004016104969061148a565b805181602001fd5b6001600160e01b031916630a85bd0160e11b1490506109a3565b506001949350505050565b60008072184f03e93ff9f4daa797ed6e38ed64bf6a1f0160401b8310610f6e5772184f03e93ff9f4daa797ed6e38ed64bf6a1f0160401b830492506040015b6d04ee2d6d415b85acef81000000008310610f9a576d04ee2d6d415b85acef8100000000830492506020015b662386f26fc100008310610fb857662386f26fc10000830492506010015b6305f5e1008310610fd0576305f5e100830492506008015b6127108310610fe457612710830492506004015b60648310610ff6576064830492506002015b600a83106103635760010192915050565b6001600160e01b0319811681146108bb57600080fd5b60006020828403121561102f57600080fd5b813561063781611007565b60005b8381101561105557818101518382015260200161103d565b50506000910152565b6000815180845261107681602086016020860161103a565b601f01601f19169290920160200192915050565b602081526000610637602083018461105e565b6000602082840312156110af57600080fd5b5035919050565b80356001600160a01b03811681146110cd57600080fd5b919050565b600080604083850312156110e557600080fd5b6110ee836110b6565b946020939093013593505050565b60008060006060848603121561111157600080fd5b61111a846110b6565b9250611128602085016110b6565b9150604084013590509250925092565b634e487b7160e01b600052604160045260246000fd5b600082601f83011261115f57600080fd5b813567ffffffffffffffff8082111561117a5761117a611138565b604051601f8301601f19908116603f011681019082821181831017156111a2576111a2611138565b816040528381528660208588010111156111bb57600080fd5b836020870160208301376000602085830101528094505050505092915050565b600080604083850312156111ee57600080fd5b6111f7836110b6565b9150602083013567ffffffffffffffff81111561121357600080fd5b61121f8582860161114e565b9150509250929050565b6000806040838503121561123c57600080fd5b8235915061124c602084016110b6565b90509250929050565b60006020828403121561126757600080fd5b813567ffffffffffffffff81111561127e57600080fd5b6109a38482850161114e565b60006020828403121561129c57600080fd5b610637826110b6565b600080604083850312156112b857600080fd5b6112c1836110b6565b9150602083013580151581146112d657600080fd5b809150509250929050565b600080600080608085870312156112f757600080fd5b611300856110b6565b935061130e602086016110b6565b925060408501359150606085013567ffffffffffffffff81111561133157600080fd5b61133d8782880161114e565b91505092959194509250565b6000806040838503121561135c57600080fd5b611365836110b6565b915061124c602084016110b6565b600181811c9082168061138757607f821691505b6020821081036113a757634e487b7160e01b600052602260045260246000fd5b50919050565b6020808252602d908201527f4552433732313a2063616c6c6572206973206e6f7420746f6b656e206f776e6560408201526c1c881bdc88185c1c1c9bdd9959609a1b606082015260800190565b6000825161140c81846020870161103a565b9190910192915050565b6000835161142881846020880161103a565b83519083019061143c81836020880161103a565b01949350505050565b60208082526025908201527f4552433732313a207472616e736665722066726f6d20696e636f72726563742060408201526437bbb732b960d91b606082015260800190565b60208082526032908201527f4552433732313a207472616e7366657220746f206e6f6e20455243373231526560408201527131b2b4bb32b91034b6b83632b6b2b73a32b960711b606082015260800190565b6001600160a01b038581168252841660208201526040810183905260806060820181905260009061150f9083018461105e565b9695505050505050565b60006020828403121561152b57600080fd5b81516106378161100756fea2646970667358221220dddd68cbaca1486de8f58cf1eb7c55b5f73d7904c3c90d76cabe062974802b2164736f6c63430008110033",
  "devdoc": {
    "kind": "dev",
    "methods": {
      "approve(address,uint256)": {
        "details": "See {IERC721-approve}."
      },
      "balanceOf(address)": {
        "details": "See {IERC721-balanceOf}."
      },
      "getApproved(uint256)": {
        "details": "See {IERC721-getApproved}."
      },
      "isApprovedForAll(address,address)": {
        "details": "See {IERC721-isApprovedForAll}."
      },
      "name()": {
        "details": "See {IERC721Metadata-name}."
      },
      "ownerOf(uint256)": {
        "details": "See {IERC721-ownerOf}."
      },
      "safeTransferFrom(address,address,uint256)": {
        "details": "See {IERC721-safeTransferFrom}."
      },
      "safeTransferFrom(address,address,uint256,bytes)": {
        "details": "See {IERC721-safeTransferFrom}."
      },
      "setApprovalForAll(address,bool)": {
        "details": "See {IERC721-setApprovalForAll}."
      },
      "supportsInterface(bytes4)": {
        "details": "See {IERC165-supportsInterface}."
      },
      "symbol()": {
        "details": "See {IERC721Metadata-symbol}."
      },
      "tokenURI(uint256)": {
        "details": "See {IERC721Metadata-tokenURI}."
      },
      "transferFrom(address,address,uint256)": {
        "details": "See {IERC721-transferFrom}."
      }
    },
    "version": 1
  },
  "userdoc": {
    "kind": "user",
    "methods": {},
    "version": 1
  },
  "storageLayout": {
    "storage": [
      {
        "astId": 8457,
        "contract": "contracts/BNS.sol:BNS",
        "label": "_name",
        "offset": 0,
        "slot": "0",
        "type": "t_string_storage"
      },
      {
        "astId": 8459,
        "contract": "contracts/BNS.sol:BNS",
        "label": "_symbol",
        "offset": 0,
        "slot": "1",
        "type": "t_string_storage"
      },
      {
        "astId": 8463,
        "contract": "contracts/BNS.sol:BNS",
        "label": "_owners",
        "offset": 0,
        "slot": "2",
        "type": "t_mapping(t_uint256,t_address)"
      },
      {
        "astId": 8467,
        "contract": "contracts/BNS.sol:BNS",
        "label": "_balances",
        "offset": 0,
        "slot": "3",
        "type": "t_mapping(t_address,t_uint256)"
      },
      {
        "astId": 8471,
        "contract": "contracts/BNS.sol:BNS",
        "label": "_tokenApprovals",
        "offset": 0,
        "slot": "4",
        "type": "t_mapping(t_uint256,t_address)"
      },
      {
        "astId": 8477,
        "contract": "contracts/BNS.sol:BNS",
        "label": "_operatorApprovals",
        "offset": 0,
        "slot": "5",
        "type": "t_mapping(t_address,t_mapping(t_address,t_bool))"
      },
      {
        "astId": 16016,
        "contract": "contracts/BNS.sol:BNS",
        "label": "_tokenIds",
        "offset": 0,
        "slot": "6",
        "type": "t_struct(Counter)11373_storage"
      },
      {
        "astId": 16020,
        "contract": "contracts/BNS.sol:BNS",
        "label": "registry",
        "offset": 0,
        "slot": "7",
        "type": "t_mapping(t_bytes_memory_ptr,t_uint256)"
      },
      {
        "astId": 16024,
        "contract": "contracts/BNS.sol:BNS",
        "label": "registered",
        "offset": 0,
        "slot": "8",
        "type": "t_mapping(t_bytes_memory_ptr,t_bool)"
      },
      {
        "astId": 16028,
        "contract": "contracts/BNS.sol:BNS",
        "label": "resolver",
        "offset": 0,
        "slot": "9",
        "type": "t_mapping(t_uint256,t_address)"
      }
    ],
    "types": {
      "t_address": {
        "encoding": "inplace",
        "label": "address",
        "numberOfBytes": "20"
      },
      "t_bool": {
        "encoding": "inplace",
        "label": "bool",
        "numberOfBytes": "1"
      },
      "t_bytes_memory_ptr": {
        "encoding": "bytes",
        "label": "bytes",
        "numberOfBytes": "32"
      },
      "t_mapping(t_address,t_bool)": {
        "encoding": "mapping",
        "key": "t_address",
        "label": "mapping(address => bool)",
        "numberOfBytes": "32",
        "value": "t_bool"
      },
      "t_mapping(t_address,t_mapping(t_address,t_bool))": {
        "encoding": "mapping",
        "key": "t_address",
        "label": "mapping(address => mapping(address => bool))",
        "numberOfBytes": "32",
        "value": "t_mapping(t_address,t_bool)"
      },
      "t_mapping(t_address,t_uint256)": {
        "encoding": "mapping",
        "key": "t_address",
        "label": "mapping(address => uint256)",
        "numberOfBytes": "32",
        "value": "t_uint256"
      },
      "t_mapping(t_bytes_memory_ptr,t_bool)": {
        "encoding": "mapping",
        "key": "t_bytes_memory_ptr",
        "label": "mapping(bytes => bool)",
        "numberOfBytes": "32",
        "value": "t_bool"
      },
      "t_mapping(t_bytes_memory_ptr,t_uint256)": {
        "encoding": "mapping",
        "key": "t_bytes_memory_ptr",
        "label": "mapping(bytes => uint256)",
        "numberOfBytes": "32",
        "value": "t_uint256"
      },
      "t_mapping(t_uint256,t_address)": {
        "encoding": "mapping",
        "key": "t_uint256",
        "label": "mapping(uint256 => address)",
        "numberOfBytes": "32",
        "value": "t_address"
      },
      "t_string_storage": {
        "encoding": "bytes",
        "label": "string",
        "numberOfBytes": "32"
      },
      "t_struct(Counter)11373_storage": {
        "encoding": "inplace",
        "label": "struct Counters.Counter",
        "members": [
          {
            "astId": 11372,
            "contract": "contracts/BNS.sol:BNS",
            "label": "_value",
            "offset": 0,
            "slot": "0",
            "type": "t_uint256"
          }
        ],
        "numberOfBytes": "32"
      },
      "t_uint256": {
        "encoding": "inplace",
        "label": "uint256",
        "numberOfBytes": "32"
      }
    }
  }
}