{
  "address": "0xbDDa22AC4a0142A16c645a8209e543f4372AB947",
  "abi": [
    {
      "inputs": [
        {
          "internalType": "address payable[]",
          "name": "_addresses",
          "type": "address[]"
        },
        {
          "internalType": "uint256[]",
          "name": "_amounts",
          "type": "uint256[]"
        }
      ],
      "name": "multisend",
      "outputs": [
        {
          "internalType": "bool",
          "name": "",
          "type": "bool"
        }
      ],
      "stateMutability": "payable",
      "type": "function"
    }
  ],
  "transactionHash": "0x0279e33cf32334f54624d2d5f9d1309377b5e1631b3bb6fbe61018a70bcd06b1",
  "args": [],
  "numDeployments": 1,
  "solcInputHash": "4afe04f12097b5b349d9d937c5a37156",
  "bytecode": "0x608060405234801561001057600080fd5b506102ed806100206000396000f3fe60806040526004361061001e5760003560e01c8063aad41a4114610023575b600080fd5b6100366100313660046101bd565b61004a565b604051901515815260200160405180910390f35b600083821461005857600080fd5b60ff84111561006657600080fd5b3460005b60ff811686111561014f576100a385858360ff1681811061008d5761008d610229565b905060200201358361015c90919063ffffffff16565b915086868260ff168181106100ba576100ba610229565b90506020020160208101906100cf919061023f565b6001600160a01b031685858360ff168181106100ed576100ed610229565b9050602002013560405160006040518083038185875af1925050503d8060008114610134576040519150601f19603f3d011682016040523d82523d6000602084013e610139565b606091505b505050808061014790610285565b91505061006a565b5060019695505050505050565b600061016882846102a4565b90505b92915050565b60008083601f84011261018357600080fd5b50813567ffffffffffffffff81111561019b57600080fd5b6020830191508360208260051b85010111156101b657600080fd5b9250929050565b600080600080604085870312156101d357600080fd5b843567ffffffffffffffff808211156101eb57600080fd5b6101f788838901610171565b9096509450602087013591508082111561021057600080fd5b5061021d87828801610171565b95989497509550505050565b634e487b7160e01b600052603260045260246000fd5b60006020828403121561025157600080fd5b81356001600160a01b038116811461026857600080fd5b9392505050565b634e487b7160e01b600052601160045260246000fd5b600060ff821660ff810361029b5761029b61026f565b60010192915050565b8181038181111561016b5761016b61026f56fea264697066735822122005fea7f3ef56f7360730f6cf2a5a3807beb91965b5ba2e58dedcac17c0c4fd8264736f6c63430008110033",
  "devdoc": {
    "kind": "dev",
    "methods": {},
    "version": 1
  },
  "userdoc": {
    "kind": "user",
    "methods": {},
    "version": 1
  },
  "storageLayout": {
    "storage": [],
    "types": null
  }
}