{
  "address": "0x5fbB2FE8f22b7982F99A13C4aeA1B0Cf177B8CC5",
  "abi": [
    {
      "inputs": [],
      "stateMutability": "nonpayable",
      "type": "constructor"
    },
    {
      "inputs": [],
      "name": "buy",
      "outputs": [],
      "stateMutability": "payable",
      "type": "function"
    },
    {
      "inputs": [],
      "name": "discountRate",
      "outputs": [
        {
          "internalType": "uint256",
          "name": "",
          "type": "uint256"
        }
      ],
      "stateMutability": "view",
      "type": "function"
    },
    {
      "inputs": [],
      "name": "expiresAt",
      "outputs": [
        {
          "internalType": "uint256",
          "name": "",
          "type": "uint256"
        }
      ],
      "stateMutability": "view",
      "type": "function"
    },
    {
      "inputs": [],
      "name": "getPrice",
      "outputs": [
        {
          "internalType": "uint256",
          "name": "",
          "type": "uint256"
        }
      ],
      "stateMutability": "view",
      "type": "function"
    },
    {
      "inputs": [],
      "name": "nft",
      "outputs": [
        {
          "internalType": "contract IERC721",
          "name": "",
          "type": "address"
        }
      ],
      "stateMutability": "view",
      "type": "function"
    },
    {
      "inputs": [],
      "name": "nftId",
      "outputs": [
        {
          "internalType": "uint256",
          "name": "",
          "type": "uint256"
        }
      ],
      "stateMutability": "view",
      "type": "function"
    },
    {
      "inputs": [],
      "name": "seller",
      "outputs": [
        {
          "internalType": "address payable",
          "name": "",
          "type": "address"
        }
      ],
      "stateMutability": "view",
      "type": "function"
    },
    {
      "inputs": [],
      "name": "startAt",
      "outputs": [
        {
          "internalType": "uint256",
          "name": "",
          "type": "uint256"
        }
      ],
      "stateMutability": "view",
      "type": "function"
    },
    {
      "inputs": [],
      "name": "startingPrice",
      "outputs": [
        {
          "internalType": "uint256",
          "name": "",
          "type": "uint256"
        }
      ],
      "stateMutability": "view",
      "type": "function"
    }
  ],
  "transactionHash": "0xb77c042cad7e6a7411b6c8650d3786b10e2db6b5a33434860465c4cd4c073eac",
  "args": [],
  "numDeployments": 1,
  "solcInputHash": "4b8d0080e1b234a4668a9d61888040ed",
  "bytecode": "0x61016060405234801561001157600080fd5b50670de0b6b3a7640000620186a060405161002b90610151565b604051809103906000f080158015610047573d6000803e3d6000fd5b503360c05260e0839052426101008190526000906100699062093a8090610174565b6101205261014083905261008062093a808461018d565b8410156100d35760405162461bcd60e51b815260206004820152601460248201527f7374617274696e67207072696365203c206d696e000000000000000000000000604482015260640160405180910390fd5b6001600160a01b0391909116608081905260a09190915260408051636902622f60e11b815230600482015260248101919091526000604482015290925063d204c45e9150606401600060405180830381600087803b15801561013457600080fd5b505af1158015610148573d6000803e3d6000fd5b505050506101a4565b611f678061073e83390190565b634e487b7160e01b600052601160045260246000fd5b808201808211156101875761018761015e565b92915050565b80820281158282048414176101875761018761015e565b60805160a05160c05160e05161010051610120516101405161051161022d6000396000818161021f015261027801526000818161012201526102d10152600081816101b701526102490152600081816101eb01526102a4015260008181609d015261046b015260008181610183015261039a01526000818160ee01526103c001526105116000f3fe6080604052600436106100865760003560e01c8063a6f2ae3a11610059578063a6f2ae3a14610167578063c6bc518214610171578063c7446565146101a5578063d6fbf202146101d9578063e6c0e6d51461020d57600080fd5b806308551a531461008b57806347ccca02146100dc5780638622a6891461011057806398d5fdca14610152575b600080fd5b34801561009757600080fd5b506100bf7f000000000000000000000000000000000000000000000000000000000000000081565b6040516001600160a01b0390911681526020015b60405180910390f35b3480156100e857600080fd5b506100bf7f000000000000000000000000000000000000000000000000000000000000000081565b34801561011c57600080fd5b506101447f000000000000000000000000000000000000000000000000000000000000000081565b6040519081526020016100d3565b34801561015e57600080fd5b50610144610241565b61016f6102cf565b005b34801561017d57600080fd5b506101447f000000000000000000000000000000000000000000000000000000000000000081565b3480156101b157600080fd5b506101447f000000000000000000000000000000000000000000000000000000000000000081565b3480156101e557600080fd5b506101447f000000000000000000000000000000000000000000000000000000000000000081565b34801561021957600080fd5b506101447f000000000000000000000000000000000000000000000000000000000000000081565b60008061026e7f0000000000000000000000000000000000000000000000000000000000000000426104ab565b9050600061029c827f00000000000000000000000000000000000000000000000000000000000000006104c4565b90506102c8817f00000000000000000000000000000000000000000000000000000000000000006104ab565b9250505090565b7f000000000000000000000000000000000000000000000000000000000000000042106103355760405162461bcd60e51b815260206004820152600f60248201526e185d58dd1a5bdb88195e1c1a5c9959608a1b60448201526064015b60405180910390fd5b600061033f610241565b90508034101561037f5760405162461bcd60e51b815260206004820152600b60248201526a455448203c20707269636560a81b604482015260640161032c565b6040516323b872dd60e01b81523060048201523360248201527f000000000000000000000000000000000000000000000000000000000000000060448201527f00000000000000000000000000000000000000000000000000000000000000006001600160a01b0316906323b872dd90606401600060405180830381600087803b15801561040c57600080fd5b505af1158015610420573d6000803e3d6000fd5b505050506000813461043291906104ab565b9050801561046957604051339082156108fc029083906000818181858888f19350505050158015610467573d6000803e3d6000fd5b505b7f00000000000000000000000000000000000000000000000000000000000000006001600160a01b0316ff5b634e487b7160e01b600052601160045260246000fd5b818103818111156104be576104be610495565b92915050565b80820281158282048414176104be576104be61049556fea264697066735822122095968157febee5a6448e7f6055f6bc0d752d491ad0d31c04e041004067d2da4564736f6c6343000811003360806040523480156200001157600080fd5b506040518060400160405280600781526020016626bcaa37b5b2b760c91b815250604051806040016040528060038152602001624d544b60e81b81525081600090816200005f9190620001fc565b5060016200006e8282620001fc565b506200008091506000905033620000b2565b620000ac7f9f2df0fed2c77648de5860a4cc508cd0818c85b8b8a1ab4ceeef8d981c8956a633620000b2565b620002c8565b60008281526007602090815260408083206001600160a01b038516845290915290205460ff16620001535760008281526007602090815260408083206001600160a01b03851684529091529020805460ff19166001179055620001123390565b6001600160a01b0316816001600160a01b0316837f2f8788117e7eff1d82e926ec794901d17c78024a50270940304540a733656f0d60405160405180910390a45b5050565b634e487b7160e01b600052604160045260246000fd5b600181811c908216806200018257607f821691505b602082108103620001a357634e487b7160e01b600052602260045260246000fd5b50919050565b601f821115620001f757600081815260208120601f850160051c81016020861015620001d25750805b601f850160051c820191505b81811015620001f357828155600101620001de565b5050505b505050565b81516001600160401b0381111562000218576200021862000157565b62000230816200022984546200016d565b84620001a9565b602080601f8311600181146200026857600084156200024f5750858301515b600019600386901b1c1916600185901b178555620001f3565b600085815260208120601f198616915b82811015620002995788860151825594840194600190910190840162000278565b5085821015620002b85787850151600019600388901b60f8161c191681555b5050505050600190811b01905550565b611c8f80620002d86000396000f3fe608060405234801561001057600080fd5b50600436106101375760003560e01c806370a08231116100b8578063b88d4fde1161007c578063b88d4fde14610292578063c87b56dd146102a5578063d204c45e146102b8578063d5391393146102cb578063d547741f146102f2578063e985e9c51461030557600080fd5b806370a082311461024957806391d148541461025c57806395d89b411461026f578063a217fddf14610277578063a22cb4651461027f57600080fd5b8063248a9ca3116100ff578063248a9ca3146101cc5780632f2ff15d146101fd57806336568abe1461021057806342842e0e146102235780636352211e1461023657600080fd5b806301ffc9a71461013c57806306fdde0314610164578063081812fc14610179578063095ea7b3146101a457806323b872dd146101b9575b600080fd5b61014f61014a366004611590565b610341565b60405190151581526020015b60405180910390f35b61016c610352565b60405161015b91906115fd565b61018c610187366004611610565b6103e4565b6040516001600160a01b03909116815260200161015b565b6101b76101b2366004611645565b61040b565b005b6101b76101c736600461166f565b610525565b6101ef6101da366004611610565b60009081526007602052604090206001015490565b60405190815260200161015b565b6101b761020b3660046116ab565b610556565b6101b761021e3660046116ab565b61057b565b6101b761023136600461166f565b6105f9565b61018c610244366004611610565b610614565b6101ef6102573660046116d7565b610674565b61014f61026a3660046116ab565b6106fa565b61016c610725565b6101ef600081565b6101b761028d3660046116f2565b610734565b6101b76102a03660046117ba565b61073f565b61016c6102b3366004611610565b610777565b6101b76102c6366004611836565b610782565b6101ef7f9f2df0fed2c77648de5860a4cc508cd0818c85b8b8a1ab4ceeef8d981c8956a681565b6101b76103003660046116ab565b6107db565b61014f610313366004611898565b6001600160a01b03918216600090815260056020908152604080832093909416825291909152205460ff1690565b600061034c82610800565b92915050565b606060008054610361906118c2565b80601f016020809104026020016040519081016040528092919081815260200182805461038d906118c2565b80156103da5780601f106103af576101008083540402835291602001916103da565b820191906000526020600020905b8154815290600101906020018083116103bd57829003601f168201915b5050505050905090565b60006103ef82610825565b506000908152600460205260409020546001600160a01b031690565b600061041682610614565b9050806001600160a01b0316836001600160a01b0316036104885760405162461bcd60e51b815260206004820152602160248201527f4552433732313a20617070726f76616c20746f2063757272656e74206f776e656044820152603960f91b60648201526084015b60405180910390fd5b336001600160a01b03821614806104a457506104a48133610313565b6105165760405162461bcd60e51b815260206004820152603d60248201527f4552433732313a20617070726f76652063616c6c6572206973206e6f7420746f60448201527f6b656e206f776e6572206f7220617070726f76656420666f7220616c6c000000606482015260840161047f565b6105208383610887565b505050565b61052f33826108f5565b61054b5760405162461bcd60e51b815260040161047f906118fc565b610520838383610974565b60008281526007602052604090206001015461057181610ad8565b6105208383610ae2565b6001600160a01b03811633146105eb5760405162461bcd60e51b815260206004820152602f60248201527f416363657373436f6e74726f6c3a2063616e206f6e6c792072656e6f756e636560448201526e103937b632b9903337b91039b2b63360891b606482015260840161047f565b6105f58282610b68565b5050565b6105208383836040518060200160405280600081525061073f565b6000818152600260205260408120546001600160a01b03168061034c5760405162461bcd60e51b8152602060048201526018602482015277115490cdcc8c4e881a5b9d985b1a59081d1bdad95b88125160421b604482015260640161047f565b60006001600160a01b0382166106de5760405162461bcd60e51b815260206004820152602960248201527f4552433732313a2061646472657373207a65726f206973206e6f7420612076616044820152683634b21037bbb732b960b91b606482015260840161047f565b506001600160a01b031660009081526003602052604090205490565b60009182526007602090815260408084206001600160a01b0393909316845291905290205460ff1690565b606060018054610361906118c2565b6105f5338383610bcf565b61074933836108f5565b6107655760405162461bcd60e51b815260040161047f906118fc565b61077184848484610c9d565b50505050565b606061034c82610cd0565b7f9f2df0fed2c77648de5860a4cc508cd0818c85b8b8a1ab4ceeef8d981c8956a66107ac81610ad8565b60006107b760085490565b90506107c7600880546001019055565b6107d18482610dd8565b6107718184610df2565b6000828152600760205260409020600101546107f681610ad8565b6105208383610b68565b60006001600160e01b03198216637965db0b60e01b148061034c575061034c82610e85565b6000818152600260205260409020546001600160a01b03166108845760405162461bcd60e51b8152602060048201526018602482015277115490cdcc8c4e881a5b9d985b1a59081d1bdad95b88125160421b604482015260640161047f565b50565b600081815260046020526040902080546001600160a01b0319166001600160a01b03841690811790915581906108bc82610614565b6001600160a01b03167f8c5be1e5ebec7d5bd14f71427d1e84f3dd0314c0f7b2291e5b200ac8c7c3b92560405160405180910390a45050565b60008061090183610614565b9050806001600160a01b0316846001600160a01b0316148061094857506001600160a01b0380821660009081526005602090815260408083209388168352929052205460ff165b8061096c5750836001600160a01b0316610961846103e4565b6001600160a01b0316145b949350505050565b826001600160a01b031661098782610614565b6001600160a01b0316146109ad5760405162461bcd60e51b815260040161047f90611949565b6001600160a01b038216610a0f5760405162461bcd60e51b8152602060048201526024808201527f4552433732313a207472616e7366657220746f20746865207a65726f206164646044820152637265737360e01b606482015260840161047f565b826001600160a01b0316610a2282610614565b6001600160a01b031614610a485760405162461bcd60e51b815260040161047f90611949565b600081815260046020908152604080832080546001600160a01b03199081169091556001600160a01b0387811680865260038552838620805460001901905590871680865283862080546001019055868652600290945282852080549092168417909155905184937fddf252ad1be2c89b69c2b068fc378daa952ba7f163c4a11628f55a4df523b3ef91a4505050565b6108848133610ed5565b610aec82826106fa565b6105f55760008281526007602090815260408083206001600160a01b03851684529091529020805460ff19166001179055610b243390565b6001600160a01b0316816001600160a01b0316837f2f8788117e7eff1d82e926ec794901d17c78024a50270940304540a733656f0d60405160405180910390a45050565b610b7282826106fa565b156105f55760008281526007602090815260408083206001600160a01b0385168085529252808320805460ff1916905551339285917ff6391f5c32d9c69d2a47ea670b442974b53935d1edc7fd64eb21e047a839171b9190a45050565b816001600160a01b0316836001600160a01b031603610c305760405162461bcd60e51b815260206004820152601960248201527f4552433732313a20617070726f766520746f2063616c6c657200000000000000604482015260640161047f565b6001600160a01b03838116600081815260056020908152604080832094871680845294825291829020805460ff191686151590811790915591519182527f17307eab39ab6107e8899845ad3d59bd9653f200f220920489ca2b5937696c31910160405180910390a3505050565b610ca8848484610974565b610cb484848484610f2e565b6107715760405162461bcd60e51b815260040161047f9061198e565b6060610cdb82610825565b60008281526006602052604081208054610cf4906118c2565b80601f0160208091040260200160405190810160405280929190818152602001828054610d20906118c2565b8015610d6d5780601f10610d4257610100808354040283529160200191610d6d565b820191906000526020600020905b815481529060010190602001808311610d5057829003601f168201915b505050505090506000610d8b60408051602081019091526000815290565b90508051600003610d9d575092915050565b815115610dcf578082604051602001610db79291906119e0565b60405160208183030381529060405292505050919050565b61096c8461102f565b6105f58282604051806020016040528060008152506110a3565b6000828152600260205260409020546001600160a01b0316610e6d5760405162461bcd60e51b815260206004820152602e60248201527f45524337323155524953746f726167653a2055524920736574206f66206e6f6e60448201526d32bc34b9ba32b73a103a37b5b2b760911b606482015260840161047f565b60008281526006602052604090206105208282611a5d565b60006001600160e01b031982166380ac58cd60e01b1480610eb657506001600160e01b03198216635b5e139f60e01b145b8061034c57506301ffc9a760e01b6001600160e01b031983161461034c565b610edf82826106fa565b6105f557610eec816110d6565b610ef78360206110e8565b604051602001610f08929190611b1d565b60408051601f198184030181529082905262461bcd60e51b825261047f916004016115fd565b60006001600160a01b0384163b1561102457604051630a85bd0160e11b81526001600160a01b0385169063150b7a0290610f72903390899088908890600401611b92565b6020604051808303816000875af1925050508015610fad575060408051601f3d908101601f19168201909252610faa91810190611bcf565b60015b61100a573d808015610fdb576040519150601f19603f3d011682016040523d82523d6000602084013e610fe0565b606091505b5080516000036110025760405162461bcd60e51b815260040161047f9061198e565b805181602001fd5b6001600160e01b031916630a85bd0160e11b14905061096c565b506001949350505050565b606061103a82610825565b600061105160408051602081019091526000815290565b90506000815111611071576040518060200160405280600081525061109c565b8061107b84611284565b60405160200161108c9291906119e0565b6040516020818303038152906040525b9392505050565b6110ad8383611317565b6110ba6000848484610f2e565b6105205760405162461bcd60e51b815260040161047f9061198e565b606061034c6001600160a01b03831660145b606060006110f7836002611c02565b611102906002611c19565b67ffffffffffffffff81111561111a5761111a61172e565b6040519080825280601f01601f191660200182016040528015611144576020820181803683370190505b509050600360fc1b8160008151811061115f5761115f611c2c565b60200101906001600160f81b031916908160001a905350600f60fb1b8160018151811061118e5761118e611c2c565b60200101906001600160f81b031916908160001a90535060006111b2846002611c02565b6111bd906001611c19565b90505b6001811115611235576f181899199a1a9b1b9c1cb0b131b232b360811b85600f16601081106111f1576111f1611c2c565b1a60f81b82828151811061120757611207611c2c565b60200101906001600160f81b031916908160001a90535060049490941c9361122e81611c42565b90506111c0565b50831561109c5760405162461bcd60e51b815260206004820181905260248201527f537472696e67733a20686578206c656e67746820696e73756666696369656e74604482015260640161047f565b60606000611291836114a2565b600101905060008167ffffffffffffffff8111156112b1576112b161172e565b6040519080825280601f01601f1916602001820160405280156112db576020820181803683370190505b5090508181016020015b600019016f181899199a1a9b1b9c1cb0b131b232b360811b600a86061a8153600a85049450846112e557509392505050565b6001600160a01b03821661136d5760405162461bcd60e51b815260206004820181905260248201527f4552433732313a206d696e7420746f20746865207a65726f2061646472657373604482015260640161047f565b6000818152600260205260409020546001600160a01b0316156113d25760405162461bcd60e51b815260206004820152601c60248201527f4552433732313a20746f6b656e20616c7265616479206d696e74656400000000604482015260640161047f565b6000818152600260205260409020546001600160a01b0316156114375760405162461bcd60e51b815260206004820152601c60248201527f4552433732313a20746f6b656e20616c7265616479206d696e74656400000000604482015260640161047f565b6001600160a01b038216600081815260036020908152604080832080546001019055848352600290915280822080546001600160a01b0319168417905551839291907fddf252ad1be2c89b69c2b068fc378daa952ba7f163c4a11628f55a4df523b3ef908290a45050565b60008072184f03e93ff9f4daa797ed6e38ed64bf6a1f0160401b83106114e15772184f03e93ff9f4daa797ed6e38ed64bf6a1f0160401b830492506040015b6d04ee2d6d415b85acef8100000000831061150d576d04ee2d6d415b85acef8100000000830492506020015b662386f26fc10000831061152b57662386f26fc10000830492506010015b6305f5e1008310611543576305f5e100830492506008015b612710831061155757612710830492506004015b60648310611569576064830492506002015b600a831061034c5760010192915050565b6001600160e01b03198116811461088457600080fd5b6000602082840312156115a257600080fd5b813561109c8161157a565b60005b838110156115c85781810151838201526020016115b0565b50506000910152565b600081518084526115e98160208601602086016115ad565b601f01601f19169290920160200192915050565b60208152600061109c60208301846115d1565b60006020828403121561162257600080fd5b5035919050565b80356001600160a01b038116811461164057600080fd5b919050565b6000806040838503121561165857600080fd5b61166183611629565b946020939093013593505050565b60008060006060848603121561168457600080fd5b61168d84611629565b925061169b60208501611629565b9150604084013590509250925092565b600080604083850312156116be57600080fd5b823591506116ce60208401611629565b90509250929050565b6000602082840312156116e957600080fd5b61109c82611629565b6000806040838503121561170557600080fd5b61170e83611629565b91506020830135801515811461172357600080fd5b809150509250929050565b634e487b7160e01b600052604160045260246000fd5b600067ffffffffffffffff8084111561175f5761175f61172e565b604051601f8501601f19908116603f011681019082821181831017156117875761178761172e565b816040528093508581528686860111156117a057600080fd5b858560208301376000602087830101525050509392505050565b600080600080608085870312156117d057600080fd5b6117d985611629565b93506117e760208601611629565b925060408501359150606085013567ffffffffffffffff81111561180a57600080fd5b8501601f8101871361181b57600080fd5b61182a87823560208401611744565b91505092959194509250565b6000806040838503121561184957600080fd5b61185283611629565b9150602083013567ffffffffffffffff81111561186e57600080fd5b8301601f8101851361187f57600080fd5b61188e85823560208401611744565b9150509250929050565b600080604083850312156118ab57600080fd5b6118b483611629565b91506116ce60208401611629565b600181811c908216806118d657607f821691505b6020821081036118f657634e487b7160e01b600052602260045260246000fd5b50919050565b6020808252602d908201527f4552433732313a2063616c6c6572206973206e6f7420746f6b656e206f776e6560408201526c1c881bdc88185c1c1c9bdd9959609a1b606082015260800190565b60208082526025908201527f4552433732313a207472616e736665722066726f6d20696e636f72726563742060408201526437bbb732b960d91b606082015260800190565b60208082526032908201527f4552433732313a207472616e7366657220746f206e6f6e20455243373231526560408201527131b2b4bb32b91034b6b83632b6b2b73a32b960711b606082015260800190565b600083516119f28184602088016115ad565b835190830190611a068183602088016115ad565b01949350505050565b601f82111561052057600081815260208120601f850160051c81016020861015611a365750805b601f850160051c820191505b81811015611a5557828155600101611a42565b505050505050565b815167ffffffffffffffff811115611a7757611a7761172e565b611a8b81611a8584546118c2565b84611a0f565b602080601f831160018114611ac05760008415611aa85750858301515b600019600386901b1c1916600185901b178555611a55565b600085815260208120601f198616915b82811015611aef57888601518255948401946001909101908401611ad0565b5085821015611b0d5787850151600019600388901b60f8161c191681555b5050505050600190811b01905550565b7f416363657373436f6e74726f6c3a206163636f756e7420000000000000000000815260008351611b558160178501602088016115ad565b7001034b99036b4b9b9b4b733903937b6329607d1b6017918401918201528351611b868160288401602088016115ad565b01602801949350505050565b6001600160a01b0385811682528416602082015260408101839052608060608201819052600090611bc5908301846115d1565b9695505050505050565b600060208284031215611be157600080fd5b815161109c8161157a565b634e487b7160e01b600052601160045260246000fd5b808202811582820484141761034c5761034c611bec565b8082018082111561034c5761034c611bec565b634e487b7160e01b600052603260045260246000fd5b600081611c5157611c51611bec565b50600019019056fea2646970667358221220ea6dd2f2bb3d46ba8376ee5a3fbac71aee9393d84993158fb30e5d6a9a45aa7a64736f6c63430008110033",
  "devdoc": {
    "kind": "dev",
    "methods": {},
    "version": 1
  },
  "userdoc": {
    "kind": "user",
    "methods": {},
    "version": 1
  },
  "storageLayout": {
    "storage": [],
    "types": null
  }
}