{
  "address": "0x55B8A0Fc6F96Ce9056E65A60100f39645F043Cb4",
  "abi": [
    {
      "inputs": [],
      "stateMutability": "nonpayable",
      "type": "constructor"
    },
    {
      "inputs": [],
      "name": "Empty",
      "type": "error"
    },
    {
      "anonymous": false,
      "inputs": [
        {
          "indexed": false,
          "internalType": "uint256",
          "name": "proposalId",
          "type": "uint256"
        }
      ],
      "name": "ProposalCanceled",
      "type": "event"
    },
    {
      "anonymous": false,
      "inputs": [
        {
          "indexed": false,
          "internalType": "uint256",
          "name": "proposalId",
          "type": "uint256"
        },
        {
          "indexed": false,
          "internalType": "address",
          "name": "proposer",
          "type": "address"
        },
        {
          "indexed": false,
          "internalType": "address[]",
          "name": "targets",
          "type": "address[]"
        },
        {
          "indexed": false,
          "internalType": "uint256[]",
          "name": "values",
          "type": "uint256[]"
        },
        {
          "indexed": false,
          "internalType": "string[]",
          "name": "signatures",
          "type": "string[]"
        },
        {
          "indexed": false,
          "internalType": "bytes[]",
          "name": "calldatas",
          "type": "bytes[]"
        },
        {
          "indexed": false,
          "internalType": "uint256",
          "name": "startBlock",
          "type": "uint256"
        },
        {
          "indexed": false,
          "internalType": "uint256",
          "name": "endBlock",
          "type": "uint256"
        },
        {
          "indexed": false,
          "internalType": "string",
          "name": "description",
          "type": "string"
        }
      ],
      "name": "ProposalCreated",
      "type": "event"
    },
    {
      "anonymous": false,
      "inputs": [
        {
          "indexed": false,
          "internalType": "uint256",
          "name": "proposalId",
          "type": "uint256"
        }
      ],
      "name": "ProposalExecuted",
      "type": "event"
    },
    {
      "anonymous": false,
      "inputs": [
        {
          "indexed": false,
          "internalType": "uint256",
          "name": "proposalId",
          "type": "uint256"
        },
        {
          "indexed": false,
          "internalType": "uint256",
          "name": "eta",
          "type": "uint256"
        }
      ],
      "name": "ProposalQueued",
      "type": "event"
    },
    {
      "anonymous": false,
      "inputs": [
        {
          "indexed": false,
          "internalType": "uint256",
          "name": "oldQuorumNumerator",
          "type": "uint256"
        },
        {
          "indexed": false,
          "internalType": "uint256",
          "name": "newQuorumNumerator",
          "type": "uint256"
        }
      ],
      "name": "QuorumNumeratorUpdated",
      "type": "event"
    },
    {
      "anonymous": false,
      "inputs": [
        {
          "indexed": true,
          "internalType": "address",
          "name": "voter",
          "type": "address"
        },
        {
          "indexed": false,
          "internalType": "uint256",
          "name": "proposalId",
          "type": "uint256"
        },
        {
          "indexed": false,
          "internalType": "uint8",
          "name": "support",
          "type": "uint8"
        },
        {
          "indexed": false,
          "internalType": "uint256",
          "name": "weight",
          "type": "uint256"
        },
        {
          "indexed": false,
          "internalType": "string",
          "name": "reason",
          "type": "string"
        }
      ],
      "name": "VoteCast",
      "type": "event"
    },
    {
      "anonymous": false,
      "inputs": [
        {
          "indexed": true,
          "internalType": "address",
          "name": "voter",
          "type": "address"
        },
        {
          "indexed": false,
          "internalType": "uint256",
          "name": "proposalId",
          "type": "uint256"
        },
        {
          "indexed": false,
          "internalType": "uint8",
          "name": "support",
          "type": "uint8"
        },
        {
          "indexed": false,
          "internalType": "uint256",
          "name": "weight",
          "type": "uint256"
        },
        {
          "indexed": false,
          "internalType": "string",
          "name": "reason",
          "type": "string"
        },
        {
          "indexed": false,
          "internalType": "bytes",
          "name": "params",
          "type": "bytes"
        }
      ],
      "name": "VoteCastWithParams",
      "type": "event"
    },
    {
      "inputs": [],
      "name": "BALLOT_TYPEHASH",
      "outputs": [
        {
          "internalType": "bytes32",
          "name": "",
          "type": "bytes32"
        }
      ],
      "stateMutability": "view",
      "type": "function"
    },
    {
      "inputs": [],
      "name": "COUNTING_MODE",
      "outputs": [
        {
          "internalType": "string",
          "name": "",
          "type": "string"
        }
      ],
      "stateMutability": "pure",
      "type": "function"
    },
    {
      "inputs": [],
      "name": "EXTENDED_BALLOT_TYPEHASH",
      "outputs": [
        {
          "internalType": "bytes32",
          "name": "",
          "type": "bytes32"
        }
      ],
      "stateMutability": "view",
      "type": "function"
    },
    {
      "inputs": [
        {
          "internalType": "uint256",
          "name": "proposalId",
          "type": "uint256"
        }
      ],
      "name": "cancel",
      "outputs": [],
      "stateMutability": "nonpayable",
      "type": "function"
    },
    {
      "inputs": [
        {
          "internalType": "uint256",
          "name": "proposalId",
          "type": "uint256"
        },
        {
          "internalType": "uint8",
          "name": "support",
          "type": "uint8"
        }
      ],
      "name": "castVote",
      "outputs": [
        {
          "internalType": "uint256",
          "name": "",
          "type": "uint256"
        }
      ],
      "stateMutability": "nonpayable",
      "type": "function"
    },
    {
      "inputs": [
        {
          "internalType": "uint256",
          "name": "proposalId",
          "type": "uint256"
        },
        {
          "internalType": "uint8",
          "name": "support",
          "type": "uint8"
        },
        {
          "internalType": "uint8",
          "name": "v",
          "type": "uint8"
        },
        {
          "internalType": "bytes32",
          "name": "r",
          "type": "bytes32"
        },
        {
          "internalType": "bytes32",
          "name": "s",
          "type": "bytes32"
        }
      ],
      "name": "castVoteBySig",
      "outputs": [
        {
          "internalType": "uint256",
          "name": "",
          "type": "uint256"
        }
      ],
      "stateMutability": "nonpayable",
      "type": "function"
    },
    {
      "inputs": [
        {
          "internalType": "uint256",
          "name": "proposalId",
          "type": "uint256"
        },
        {
          "internalType": "uint8",
          "name": "support",
          "type": "uint8"
        },
        {
          "internalType": "string",
          "name": "reason",
          "type": "string"
        }
      ],
      "name": "castVoteWithReason",
      "outputs": [
        {
          "internalType": "uint256",
          "name": "",
          "type": "uint256"
        }
      ],
      "stateMutability": "nonpayable",
      "type": "function"
    },
    {
      "inputs": [
        {
          "internalType": "uint256",
          "name": "proposalId",
          "type": "uint256"
        },
        {
          "internalType": "uint8",
          "name": "support",
          "type": "uint8"
        },
        {
          "internalType": "string",
          "name": "reason",
          "type": "string"
        },
        {
          "internalType": "bytes",
          "name": "params",
          "type": "bytes"
        }
      ],
      "name": "castVoteWithReasonAndParams",
      "outputs": [
        {
          "internalType": "uint256",
          "name": "",
          "type": "uint256"
        }
      ],
      "stateMutability": "nonpayable",
      "type": "function"
    },
    {
      "inputs": [
        {
          "internalType": "uint256",
          "name": "proposalId",
          "type": "uint256"
        },
        {
          "internalType": "uint8",
          "name": "support",
          "type": "uint8"
        },
        {
          "internalType": "string",
          "name": "reason",
          "type": "string"
        },
        {
          "internalType": "bytes",
          "name": "params",
          "type": "bytes"
        },
        {
          "internalType": "uint8",
          "name": "v",
          "type": "uint8"
        },
        {
          "internalType": "bytes32",
          "name": "r",
          "type": "bytes32"
        },
        {
          "internalType": "bytes32",
          "name": "s",
          "type": "bytes32"
        }
      ],
      "name": "castVoteWithReasonAndParamsBySig",
      "outputs": [
        {
          "internalType": "uint256",
          "name": "",
          "type": "uint256"
        }
      ],
      "stateMutability": "nonpayable",
      "type": "function"
    },
    {
      "inputs": [
        {
          "internalType": "address[]",
          "name": "targets",
          "type": "address[]"
        },
        {
          "internalType": "uint256[]",
          "name": "values",
          "type": "uint256[]"
        },
        {
          "internalType": "bytes[]",
          "name": "calldatas",
          "type": "bytes[]"
        },
        {
          "internalType": "bytes32",
          "name": "descriptionHash",
          "type": "bytes32"
        }
      ],
      "name": "execute",
      "outputs": [
        {
          "internalType": "uint256",
          "name": "",
          "type": "uint256"
        }
      ],
      "stateMutability": "payable",
      "type": "function"
    },
    {
      "inputs": [
        {
          "internalType": "uint256",
          "name": "proposalId",
          "type": "uint256"
        }
      ],
      "name": "execute",
      "outputs": [],
      "stateMutability": "payable",
      "type": "function"
    },
    {
      "inputs": [
        {
          "internalType": "uint256",
          "name": "proposalId",
          "type": "uint256"
        }
      ],
      "name": "getActions",
      "outputs": [
        {
          "internalType": "address[]",
          "name": "targets",
          "type": "address[]"
        },
        {
          "internalType": "uint256[]",
          "name": "values",
          "type": "uint256[]"
        },
        {
          "internalType": "string[]",
          "name": "signatures",
          "type": "string[]"
        },
        {
          "internalType": "bytes[]",
          "name": "calldatas",
          "type": "bytes[]"
        }
      ],
      "stateMutability": "view",
      "type": "function"
    },
    {
      "inputs": [
        {
          "internalType": "uint256",
          "name": "proposalId",
          "type": "uint256"
        },
        {
          "internalType": "address",
          "name": "voter",
          "type": "address"
        }
      ],
      "name": "getReceipt",
      "outputs": [
        {
          "components": [
            {
              "internalType": "bool",
              "name": "hasVoted",
              "type": "bool"
            },
            {
              "internalType": "uint8",
              "name": "support",
              "type": "uint8"
            },
            {
              "internalType": "uint96",
              "name": "votes",
              "type": "uint96"
            }
          ],
          "internalType": "struct IGovernorCompatibilityBravo.Receipt",
          "name": "",
          "type": "tuple"
        }
      ],
      "stateMutability": "view",
      "type": "function"
    },
    {
      "inputs": [
        {
          "internalType": "address",
          "name": "account",
          "type": "address"
        },
        {
          "internalType": "uint256",
          "name": "blockNumber",
          "type": "uint256"
        }
      ],
      "name": "getVotes",
      "outputs": [
        {
          "internalType": "uint256",
          "name": "",
          "type": "uint256"
        }
      ],
      "stateMutability": "view",
      "type": "function"
    },
    {
      "inputs": [
        {
          "internalType": "address",
          "name": "account",
          "type": "address"
        },
        {
          "internalType": "uint256",
          "name": "blockNumber",
          "type": "uint256"
        },
        {
          "internalType": "bytes",
          "name": "params",
          "type": "bytes"
        }
      ],
      "name": "getVotesWithParams",
      "outputs": [
        {
          "internalType": "uint256",
          "name": "",
          "type": "uint256"
        }
      ],
      "stateMutability": "view",
      "type": "function"
    },
    {
      "inputs": [
        {
          "internalType": "uint256",
          "name": "proposalId",
          "type": "uint256"
        },
        {
          "internalType": "address",
          "name": "account",
          "type": "address"
        }
      ],
      "name": "hasVoted",
      "outputs": [
        {
          "internalType": "bool",
          "name": "",
          "type": "bool"
        }
      ],
      "stateMutability": "view",
      "type": "function"
    },
    {
      "inputs": [
        {
          "internalType": "address[]",
          "name": "targets",
          "type": "address[]"
        },
        {
          "internalType": "uint256[]",
          "name": "values",
          "type": "uint256[]"
        },
        {
          "internalType": "bytes[]",
          "name": "calldatas",
          "type": "bytes[]"
        },
        {
          "internalType": "bytes32",
          "name": "descriptionHash",
          "type": "bytes32"
        }
      ],
      "name": "hashProposal",
      "outputs": [
        {
          "internalType": "uint256",
          "name": "",
          "type": "uint256"
        }
      ],
      "stateMutability": "pure",
      "type": "function"
    },
    {
      "inputs": [],
      "name": "name",
      "outputs": [
        {
          "internalType": "string",
          "name": "",
          "type": "string"
        }
      ],
      "stateMutability": "view",
      "type": "function"
    },
    {
      "inputs": [
        {
          "internalType": "address",
          "name": "",
          "type": "address"
        },
        {
          "internalType": "address",
          "name": "",
          "type": "address"
        },
        {
          "internalType": "uint256[]",
          "name": "",
          "type": "uint256[]"
        },
        {
          "internalType": "uint256[]",
          "name": "",
          "type": "uint256[]"
        },
        {
          "internalType": "bytes",
          "name": "",
          "type": "bytes"
        }
      ],
      "name": "onERC1155BatchReceived",
      "outputs": [
        {
          "internalType": "bytes4",
          "name": "",
          "type": "bytes4"
        }
      ],
      "stateMutability": "nonpayable",
      "type": "function"
    },
    {
      "inputs": [
        {
          "internalType": "address",
          "name": "",
          "type": "address"
        },
        {
          "internalType": "address",
          "name": "",
          "type": "address"
        },
        {
          "internalType": "uint256",
          "name": "",
          "type": "uint256"
        },
        {
          "internalType": "uint256",
          "name": "",
          "type": "uint256"
        },
        {
          "internalType": "bytes",
          "name": "",
          "type": "bytes"
        }
      ],
      "name": "onERC1155Received",
      "outputs": [
        {
          "internalType": "bytes4",
          "name": "",
          "type": "bytes4"
        }
      ],
      "stateMutability": "nonpayable",
      "type": "function"
    },
    {
      "inputs": [
        {
          "internalType": "address",
          "name": "",
          "type": "address"
        },
        {
          "internalType": "address",
          "name": "",
          "type": "address"
        },
        {
          "internalType": "uint256",
          "name": "",
          "type": "uint256"
        },
        {
          "internalType": "bytes",
          "name": "",
          "type": "bytes"
        }
      ],
      "name": "onERC721Received",
      "outputs": [
        {
          "internalType": "bytes4",
          "name": "",
          "type": "bytes4"
        }
      ],
      "stateMutability": "nonpayable",
      "type": "function"
    },
    {
      "inputs": [
        {
          "internalType": "uint256",
          "name": "proposalId",
          "type": "uint256"
        }
      ],
      "name": "proposalDeadline",
      "outputs": [
        {
          "internalType": "uint256",
          "name": "",
          "type": "uint256"
        }
      ],
      "stateMutability": "view",
      "type": "function"
    },
    {
      "inputs": [
        {
          "internalType": "uint256",
          "name": "",
          "type": "uint256"
        }
      ],
      "name": "proposalEta",
      "outputs": [
        {
          "internalType": "uint256",
          "name": "",
          "type": "uint256"
        }
      ],
      "stateMutability": "pure",
      "type": "function"
    },
    {
      "inputs": [
        {
          "internalType": "uint256",
          "name": "proposalId",
          "type": "uint256"
        }
      ],
      "name": "proposalSnapshot",
      "outputs": [
        {
          "internalType": "uint256",
          "name": "",
          "type": "uint256"
        }
      ],
      "stateMutability": "view",
      "type": "function"
    },
    {
      "inputs": [],
      "name": "proposalThreshold",
      "outputs": [
        {
          "internalType": "uint256",
          "name": "",
          "type": "uint256"
        }
      ],
      "stateMutability": "pure",
      "type": "function"
    },
    {
      "inputs": [
        {
          "internalType": "uint256",
          "name": "proposalId",
          "type": "uint256"
        }
      ],
      "name": "proposals",
      "outputs": [
        {
          "internalType": "uint256",
          "name": "id",
          "type": "uint256"
        },
        {
          "internalType": "address",
          "name": "proposer",
          "type": "address"
        },
        {
          "internalType": "uint256",
          "name": "eta",
          "type": "uint256"
        },
        {
          "internalType": "uint256",
          "name": "startBlock",
          "type": "uint256"
        },
        {
          "internalType": "uint256",
          "name": "endBlock",
          "type": "uint256"
        },
        {
          "internalType": "uint256",
          "name": "forVotes",
          "type": "uint256"
        },
        {
          "internalType": "uint256",
          "name": "againstVotes",
          "type": "uint256"
        },
        {
          "internalType": "uint256",
          "name": "abstainVotes",
          "type": "uint256"
        },
        {
          "internalType": "bool",
          "name": "canceled",
          "type": "bool"
        },
        {
          "internalType": "bool",
          "name": "executed",
          "type": "bool"
        }
      ],
      "stateMutability": "view",
      "type": "function"
    },
    {
      "inputs": [
        {
          "internalType": "address[]",
          "name": "targets",
          "type": "address[]"
        },
        {
          "internalType": "uint256[]",
          "name": "values",
          "type": "uint256[]"
        },
        {
          "internalType": "bytes[]",
          "name": "calldatas",
          "type": "bytes[]"
        },
        {
          "internalType": "string",
          "name": "description",
          "type": "string"
        }
      ],
      "name": "propose",
      "outputs": [
        {
          "internalType": "uint256",
          "name": "",
          "type": "uint256"
        }
      ],
      "stateMutability": "nonpayable",
      "type": "function"
    },
    {
      "inputs": [
        {
          "internalType": "address[]",
          "name": "targets",
          "type": "address[]"
        },
        {
          "internalType": "uint256[]",
          "name": "values",
          "type": "uint256[]"
        },
        {
          "internalType": "string[]",
          "name": "signatures",
          "type": "string[]"
        },
        {
          "internalType": "bytes[]",
          "name": "calldatas",
          "type": "bytes[]"
        },
        {
          "internalType": "string",
          "name": "description",
          "type": "string"
        }
      ],
      "name": "propose",
      "outputs": [
        {
          "internalType": "uint256",
          "name": "",
          "type": "uint256"
        }
      ],
      "stateMutability": "nonpayable",
      "type": "function"
    },
    {
      "inputs": [
        {
          "internalType": "address[]",
          "name": "",
          "type": "address[]"
        },
        {
          "internalType": "uint256[]",
          "name": "",
          "type": "uint256[]"
        },
        {
          "internalType": "bytes[]",
          "name": "",
          "type": "bytes[]"
        },
        {
          "internalType": "bytes32",
          "name": "",
          "type": "bytes32"
        }
      ],
      "name": "queue",
      "outputs": [
        {
          "internalType": "uint256",
          "name": "",
          "type": "uint256"
        }
      ],
      "stateMutability": "pure",
      "type": "function"
    },
    {
      "inputs": [
        {
          "internalType": "uint256",
          "name": "proposalId",
          "type": "uint256"
        }
      ],
      "name": "queue",
      "outputs": [],
      "stateMutability": "nonpayable",
      "type": "function"
    },
    {
      "inputs": [
        {
          "internalType": "uint256",
          "name": "blockNumber",
          "type": "uint256"
        }
      ],
      "name": "quorum",
      "outputs": [
        {
          "internalType": "uint256",
          "name": "",
          "type": "uint256"
        }
      ],
      "stateMutability": "view",
      "type": "function"
    },
    {
      "inputs": [],
      "name": "quorumDenominator",
      "outputs": [
        {
          "internalType": "uint256",
          "name": "",
          "type": "uint256"
        }
      ],
      "stateMutability": "view",
      "type": "function"
    },
    {
      "inputs": [
        {
          "internalType": "uint256",
          "name": "blockNumber",
          "type": "uint256"
        }
      ],
      "name": "quorumNumerator",
      "outputs": [
        {
          "internalType": "uint256",
          "name": "",
          "type": "uint256"
        }
      ],
      "stateMutability": "view",
      "type": "function"
    },
    {
      "inputs": [],
      "name": "quorumNumerator",
      "outputs": [
        {
          "internalType": "uint256",
          "name": "",
          "type": "uint256"
        }
      ],
      "stateMutability": "view",
      "type": "function"
    },
    {
      "inputs": [],
      "name": "quorumVotes",
      "outputs": [
        {
          "internalType": "uint256",
          "name": "",
          "type": "uint256"
        }
      ],
      "stateMutability": "view",
      "type": "function"
    },
    {
      "inputs": [
        {
          "internalType": "address",
          "name": "target",
          "type": "address"
        },
        {
          "internalType": "uint256",
          "name": "value",
          "type": "uint256"
        },
        {
          "internalType": "bytes",
          "name": "data",
          "type": "bytes"
        }
      ],
      "name": "relay",
      "outputs": [],
      "stateMutability": "payable",
      "type": "function"
    },
    {
      "inputs": [
        {
          "internalType": "uint256",
          "name": "proposalId",
          "type": "uint256"
        }
      ],
      "name": "state",
      "outputs": [
        {
          "internalType": "enum IGovernor.ProposalState",
          "name": "",
          "type": "uint8"
        }
      ],
      "stateMutability": "view",
      "type": "function"
    },
    {
      "inputs": [
        {
          "internalType": "bytes4",
          "name": "interfaceId",
          "type": "bytes4"
        }
      ],
      "name": "supportsInterface",
      "outputs": [
        {
          "internalType": "bool",
          "name": "",
          "type": "bool"
        }
      ],
      "stateMutability": "view",
      "type": "function"
    },
    {
      "inputs": [],
      "name": "timelock",
      "outputs": [
        {
          "internalType": "address",
          "name": "",
          "type": "address"
        }
      ],
      "stateMutability": "pure",
      "type": "function"
    },
    {
      "inputs": [],
      "name": "token",
      "outputs": [
        {
          "internalType": "contract IVotes",
          "name": "",
          "type": "address"
        }
      ],
      "stateMutability": "view",
      "type": "function"
    },
    {
      "inputs": [
        {
          "internalType": "uint256",
          "name": "newQuorumNumerator",
          "type": "uint256"
        }
      ],
      "name": "updateQuorumNumerator",
      "outputs": [],
      "stateMutability": "nonpayable",
      "type": "function"
    },
    {
      "inputs": [],
      "name": "version",
      "outputs": [
        {
          "internalType": "string",
          "name": "",
          "type": "string"
        }
      ],
      "stateMutability": "view",
      "type": "function"
    },
    {
      "inputs": [],
      "name": "votingDelay",
      "outputs": [
        {
          "internalType": "uint256",
          "name": "",
          "type": "uint256"
        }
      ],
      "stateMutability": "pure",
      "type": "function"
    },
    {
      "inputs": [],
      "name": "votingPeriod",
      "outputs": [
        {
          "internalType": "uint256",
          "name": "",
          "type": "uint256"
        }
      ],
      "stateMutability": "pure",
      "type": "function"
    },
    {
      "stateMutability": "payable",
      "type": "receive"
    }
  ],
  "transactionHash": "0x4910be8dcc48382dcb06a192b1b704d3a11a2cc5fbdfaa927d209001c19d3c4a",
  "args": [],
  "numDeployments": 1,
  "solcInputHash": "4afe04f12097b5b349d9d937c5a37156",
  "bytecode": "0x6101606040523480156200001257600080fd5b506040516200002190620006b1565b604051809103906000f0801580156200003e573d6000803e3d6000fd5b506004816040518060400160405280600a81526020016926bca3b7bb32b93737b960b11b8152508062000076620001b860201b60201c565b815160209283012081519183019190912060e08290526101008190524660a0818152604080517f8b73c3c69bb8fe3d512ecc4cf759cc79239f7b179b0ffacaa9a75d522b39400f818801819052818301969096526060810194909452608080850193909352308483018190528151808603909301835260c09485019091528151919095012090529190915261012052600062000113828262000764565b50506001600160a01b0316610140526200012d81620001d3565b50506101405160405163a9059cbb60e01b815233600482015269021e19e0c9bab240000060248201526001600160a01b039091169063a9059cbb906044016020604051808303816000875af11580156200018b573d6000803e3d6000fd5b505050506040513d601f19601f82011682018060405250810190620001b1919062000830565b506200087c565b6040805180820190915260018152603160f81b602082015290565b60648111156200025c5760405162461bcd60e51b815260206004820152604360248201527f476f7665726e6f72566f74657351756f72756d4672616374696f6e3a2071756f60448201527f72756d4e756d657261746f72206f7665722071756f72756d44656e6f6d696e616064820152623a37b960e91b608482015260a4015b60405180910390fd5b6000620002686200034f565b905080158015906200027a5750600654155b15620002f55760066000016040518060400160405280600063ffffffff168152602001620002b3846200038760201b62001cb21760201c565b6001600160e01b0390811690915282546001810184556000938452602093849020835194909301519091166401000000000263ffffffff909316929092179101555b62000310826006620003f660201b62001d1f1790919060201c565b505060408051828152602081018490527f0553476bf02ef2726e8ce5ced78d63e26e602e4a2257b1f559418e24b4633997910160405180910390a15050565b6006546000901562000380576200037260066200044960201b62001d551760201c565b6001600160e01b0316905090565b5060055490565b60006001600160e01b03821115620003f25760405162461bcd60e51b815260206004820152602760248201527f53616665436173743a2076616c756520646f65736e27742066697420696e20326044820152663234206269747360c81b606482015260840162000253565b5090565b600080620004338460000162000417436200049760201b62001d9c1760201c565b6200042d866200038760201b62001cb21760201c565b620004fe565b6001600160e01b03918216969116945092505050565b805460009080156200048d5762000475836200046760018462000854565b600091825260209091200190565b5464010000000090046001600160e01b031662000490565b60005b9392505050565b600063ffffffff821115620003f25760405162461bcd60e51b815260206004820152602660248201527f53616665436173743a2076616c756520646f65736e27742066697420696e203360448201526532206269747360d01b606482015260840162000253565b8254600090819080156200065357600062000520876200046760018562000854565b60408051808201909152905463ffffffff8082168084526401000000009092046001600160e01b031660208401529192509087161015620005a45760405162461bcd60e51b815260206004820152601760248201527f436865636b706f696e743a20696e76616c6964206b6579000000000000000000604482015260640162000253565b805163ffffffff808816911603620005f25784620005c9886200046760018662000854565b80546001600160e01b03929092166401000000000263ffffffff90921691909117905562000642565b6040805180820190915263ffffffff80881682526001600160e01b0380881660208085019182528b54600181018d5560008d81529190912094519151909216640100000000029216919091179101555b602001519250839150620006a99050565b50506040805180820190915263ffffffff80851682526001600160e01b0380851660208085019182528854600181018a5560008a8152918220955192519093166401000000000291909316179201919091559050815b935093915050565b6125da8062004e9083390190565b634e487b7160e01b600052604160045260246000fd5b600181811c90821680620006ea57607f821691505b6020821081036200070b57634e487b7160e01b600052602260045260246000fd5b50919050565b601f8211156200075f57600081815260208120601f850160051c810160208610156200073a5750805b601f850160051c820191505b818110156200075b5782815560010162000746565b5050505b505050565b81516001600160401b03811115620007805762000780620006bf565b6200079881620007918454620006d5565b8462000711565b602080601f831160018114620007d05760008415620007b75750858301515b600019600386901b1c1916600185901b1785556200075b565b600085815260208120601f198616915b828110156200080157888601518255948401946001909101908401620007e0565b5085821015620008205787850151600019600388901b60f8161c191681555b5050505050600190811b01905550565b6000602082840312156200084357600080fd5b815180151581146200049057600080fd5b818103818111156200087657634e487b7160e01b600052601160045260246000fd5b92915050565b60805160a05160c05160e0516101005161012051610140516145ab620008e560003960008181610961015281816119bd015261265a015260006129ca01526000612a19015260006129f40152600061294d01526000612977015260006129a101526145ab6000f3fe60806040526004361061026b5760003560e01c80637b3c71d311610144578063d33219b4116100b6578063e23a9a521161007a578063e23a9a5214610819578063eb9019d4146108e3578063f23a6e6114610903578063f8ce560a1461092f578063fc0c546a1461094f578063fe0d94c11461098357600080fd5b8063d33219b414610737578063da95691a1461075f578063dd4e2ba51461077f578063ddf0b009146107c5578063deaaa7cc146107e557600080fd5b8063ab58fb8e11610108578063ab58fb8e14610683578063b58131b0146106a4578063bc197c81146106b8578063c01f9e37146106e4578063c28bc2fa14610704578063c59057e41461071757600080fd5b80637b3c71d31461060e5780637d5e81e21461062e57806397c3d334146103245780639a802a6d1461064e578063a7713a701461066e57600080fd5b80632fe3e261116101dd57806340e58ee5116101a157806340e58ee51461051a578063438596321461053a57806354fd4d501461058457806356781388146105ae5780635f398a14146105ce57806360c4247f146105ee57600080fd5b80632fe3e26114610455578063328dd982146104895780633932abb1146104b95780633bccf4fd146104cd5780633e4f49e6146104ed57600080fd5b806306fdde031161022f57806306fdde0314610382578063150b7a02146103a4578063160cbed7146103e857806324bc1a641461040d5780632656227d146104225780632d63f6931461043557600080fd5b8063013cf08b1461027957806301ffc9a7146102f457806302a251a314610324578063034201811461034257806306f3f9e61461036257600080fd5b3661027457005b005b600080fd5b34801561028557600080fd5b50610299610294366004613673565b61099b565b604080519a8b526001600160a01b0390991660208b0152978901969096526060880194909452608087019290925260a086015260c085015260e084015215156101008301521515610120820152610140015b60405180910390f35b34801561030057600080fd5b5061031461030f36600461368c565b610a39565b60405190151581526020016102eb565b34801561033057600080fd5b5060645b6040519081526020016102eb565b34801561034e57600080fd5b5061033461035d3660046137c2565b610a4a565b34801561036e57600080fd5b5061027261037d366004613673565b610b42565b34801561038e57600080fd5b50610397610bb4565b6040516102eb91906138b8565b3480156103b057600080fd5b506103cf6103bf3660046138e2565b630a85bd0160e11b949350505050565b6040516001600160e01b031990911681526020016102eb565b3480156103f457600080fd5b50610334610403366004613ab8565b6000949350505050565b34801561041957600080fd5b50610334610c46565b610334610430366004613ab8565b610c56565b34801561044157600080fd5b50610334610450366004613673565b610d7d565b34801561046157600080fd5b506103347fb3b3f3b703cd84ce352197dcff232b1b5d3cfb2025ce47cf04742d0651f1af8881565b34801561049557600080fd5b506104a96104a4366004613673565b610db4565b6040516102eb9493929190613c10565b3480156104c557600080fd5b506014610334565b3480156104d957600080fd5b506103346104e8366004613c5d565b611045565b3480156104f957600080fd5b5061050d610508366004613673565b6110bb565b6040516102eb9190613cc1565b34801561052657600080fd5b50610272610535366004613673565b6110c6565b34801561054657600080fd5b50610314610555366004613ce9565b60008281526004602090815260408083206001600160a01b038516845260080190915290205460ff1692915050565b34801561059057600080fd5b506040805180820190915260018152603160f81b6020820152610397565b3480156105ba57600080fd5b506103346105c9366004613d15565b6113d8565b3480156105da57600080fd5b506103346105e9366004613d38565b611401565b3480156105fa57600080fd5b50610334610609366004613673565b61144b565b34801561061a57600080fd5b50610334610629366004613dbb565b6114e2565b34801561063a57600080fd5b50610334610649366004613e14565b611534565b34801561065a57600080fd5b50610334610669366004613eb4565b61154b565b34801561067a57600080fd5b50610334611562565b34801561068f57600080fd5b5061033461069e366004613673565b50600090565b3480156106b057600080fd5b506000610334565b3480156106c457600080fd5b506103cf6106d3366004613f0a565b63bc197c8160e01b95945050505050565b3480156106f057600080fd5b506103346106ff366004613673565b61158c565b610272610712366004613f99565b6115bb565b34801561072357600080fd5b50610334610732366004613ab8565b6116ad565b34801561074357600080fd5b5060005b6040516001600160a01b0390911681526020016102eb565b34801561076b57600080fd5b5061033461077a366004613fda565b6116e7565b34801561078b57600080fd5b5060408051808201909152601a81527f737570706f72743d627261766f2671756f72756d3d627261766f0000000000006020820152610397565b3480156107d157600080fd5b506102726107e0366004613673565b61170c565b3480156107f157600080fd5b506103347f150214d74d59b7d1e90c73fc22ef3d991dd0a76b046543d4d80ab92d2a50328f81565b34801561082557600080fd5b506108b3610834366004613ce9565b60408051606081018252600080825260208201819052918101919091525060009182526004602090815260408084206001600160a01b0393909316845260089092018152918190208151606081018352905460ff8082161515835261010082041693820193909352620100009092046001600160601b03169082015290565b6040805182511515815260208084015160ff1690820152918101516001600160601b0316908201526060016102eb565b3480156108ef57600080fd5b506103346108fe36600461407b565b611979565b34801561090f57600080fd5b506103cf61091e3660046140a5565b63f23a6e6160e01b95945050505050565b34801561093b57600080fd5b5061033461094a366004613673565b61199a565b34801561095b57600080fd5b506107477f000000000000000000000000000000000000000000000000000000000000000081565b610272610991366004613673565b611a44565b905090565b80600080808080808080806109af8a610d7d565b96506109ba8b61158c565b60008c815260046020526040812080546005820154600683015460078401546001600160a01b039093169e50949a5098509296509194506109fa8d6110bb565b90506002816007811115610a1057610a10613cab565b1493506007816007811115610a2757610a27613cab565b14925050509193959799509193959799565b6000610a4482611e01565b92915050565b600080610aee610ae67fb3b3f3b703cd84ce352197dcff232b1b5d3cfb2025ce47cf04742d0651f1af888c8c8c8c604051610a86929190614109565b60405180910390208b80519060200120604051602001610acb959493929190948552602085019390935260ff9190911660408401526060830152608082015260a00190565b60405160208183030381529060405280519060200120611e6c565b868686611eba565b9050610b348a828b8b8b8080601f0160208091040260200160405190810160405280939291908181526020018383808284376000920191909152508d9250611ed8915050565b9a9950505050505050505050565b333014610b915760405162461bcd60e51b8152602060048201526018602482015277476f7665726e6f723a206f6e6c79476f7665726e616e636560401b60448201526064015b60405180910390fd5b610ba8565b80610ba1600261203d565b03610b9657505b610bb1816120bc565b50565b606060008054610bc390614119565b80601f0160208091040260200160405190810160405280929190818152602001828054610bef90614119565b8015610c3c5780601f10610c1157610100808354040283529160200191610c3c565b820191906000526020600020905b815481529060010190602001808311610c1f57829003601f168201915b5050505050905090565b600061099661094a600143614169565b600080610c65868686866116ad565b90506000610c72826110bb565b90506004816007811115610c8857610c88613cab565b1480610ca557506005816007811115610ca357610ca3613cab565b145b610cfb5760405162461bcd60e51b815260206004820152602160248201527f476f7665726e6f723a2070726f706f73616c206e6f74207375636365737366756044820152601b60fa1b6064820152608401610b88565b600082815260016020818152604092839020600201805460ff191690921790915590518381527f712ae1383f79ac853f8d882153778e0260ef8f03b504e2866e0593e04d2b291f910160405180910390a1610d598288888888612208565b610d668288888888612295565b610d738288888888612208565b5095945050505050565b60008181526001602090815260408083208151928301909152546001600160401b0316908190525b6001600160401b031692915050565b60608060608060006004600087815260200190815260200160002090508060010181600201826003018360040183805480602002602001604051908101604052809291908181526020018280548015610e3657602002820191906000526020600020905b81546001600160a01b03168152600190910190602001808311610e18575b5050505050935082805480602002602001604051908101604052809291908181526020018280548015610e8857602002820191906000526020600020905b815481526020019060010190808311610e74575b5050505050925081805480602002602001604051908101604052809291908181526020016000905b82821015610f5c578382906000526020600020018054610ecf90614119565b80601f0160208091040260200160405190810160405280929190818152602001828054610efb90614119565b8015610f485780601f10610f1d57610100808354040283529160200191610f48565b820191906000526020600020905b815481529060010190602001808311610f2b57829003601f168201915b505050505081526020019060010190610eb0565b50505050915080805480602002602001604051908101604052809291908181526020016000905b8282101561102f578382906000526020600020018054610fa290614119565b80601f0160208091040260200160405190810160405280929190818152602001828054610fce90614119565b801561101b5780601f10610ff05761010080835404028352916020019161101b565b820191906000526020600020905b815481529060010190602001808311610ffe57829003601f168201915b505050505081526020019060010190610f83565b5050505090509450945094509450509193509193565b604080517f150214d74d59b7d1e90c73fc22ef3d991dd0a76b046543d4d80ab92d2a50328f602082015290810186905260ff85166060820152600090819061109390610ae690608001610acb565b90506110b0878288604051806020016040528060008152506122a2565b979650505050505050565b6000610a44826122c5565b600081815260046020526040902080546001600160a01b0316336001600160a01b0316148061110e57506000815461110c906001600160a01b03166108fe600143614169565b105b61116a5760405162461bcd60e51b815260206004820152602760248201527f476f7665726e6f72427261766f3a2070726f706f7365722061626f76652074686044820152661c995cda1bdb1960ca1b6064820152608401610b88565b6113d3816001018054806020026020016040519081016040528092919081815260200182805480156111c557602002820191906000526020600020905b81546001600160a01b031681526001909101906020018083116111a7575b50505050508260020180548060200260200160405190810160405280929190818152602001828054801561121857602002820191906000526020600020905b815481526020019060010190808311611204575b50505050506113c984600301805480602002602001604051908101604052809291908181526020016000905b828210156112f057838290600052602060002001805461126390614119565b80601f016020809104026020016040519081016040528092919081815260200182805461128f90614119565b80156112dc5780601f106112b1576101008083540402835291602001916112dc565b820191906000526020600020905b8154815290600101906020018083116112bf57829003601f168201915b505050505081526020019060010190611244565b50505060048701805460408051602080840282018101909252828152935060009084015b828210156113c057838290600052602060002001805461133390614119565b80601f016020809104026020016040519081016040528092919081815260200182805461135f90614119565b80156113ac5780601f10611381576101008083540402835291602001916113ac565b820191906000526020600020905b81548152906001019060200180831161138f57829003601f168201915b505050505081526020019060010190611314565b505050506123d7565b8460090154612509565b505050565b6000803390506113f9848285604051806020016040528060008152506122a2565b949350505050565b6000803390506110b087828888888080601f0160208091040260200160405190810160405280939291908181526020018383808284376000920191909152508a9250611ed8915050565b600654600090808203611462575050600554919050565b60006006611471600184614169565b815481106114815761148161417c565b60009182526020918290206040805180820190915291015463ffffffff8116808352600160201b9091046001600160e01b031692820192909252915084106114d757602001516001600160e01b03169392505050565b6113f9600685612517565b60008033905061152a86828787878080601f0160208091040260200160405190810160405280939291908181526020018383808284376000920191909152506122a292505050565b9695505050505050565b6000611542858585856125c9565b95945050505050565b6000611558848484612631565b90505b9392505050565b60065460009015611585576115776006611d55565b6001600160e01b0316905090565b5060055490565b60008181526001602081815260408084208151928301909152909101546001600160401b031690819052610da5565b3330146116055760405162461bcd60e51b8152602060048201526018602482015277476f7665726e6f723a206f6e6c79476f7665726e616e636560401b6044820152606401610b88565b61161c565b80611615600261203d565b0361160a57505b600080856001600160a01b031685858560405161163a929190614109565b60006040518083038185875af1925050503d8060008114611677576040519150601f19603f3d011682016040523d82523d6000602084013e61167c565b606091505b50915091506116a48282604051806060016040528060288152602001614527602891396126c7565b50505050505050565b6000848484846040516020016116c69493929190614192565b60408051601f19818403018152919052805160209091012095945050505050565b60006116f73387878787876126e0565b61152a868661170687876123d7565b85611534565b60008181526004602090815260409182902060018101805484518185028101850190955280855291936113d39390929083018282801561177557602002820191906000526020600020905b81546001600160a01b03168152600190910190602001808311611757575b5050505050826002018054806020026020016040519081016040528092919081815260200182805480156117c857602002820191906000526020600020905b8154815260200190600101908083116117b4575b505050505061197084600301805480602002602001604051908101604052809291908181526020016000905b828210156118a057838290600052602060002001805461181390614119565b80601f016020809104026020016040519081016040528092919081815260200182805461183f90614119565b801561188c5780601f106118615761010080835404028352916020019161188c565b820191906000526020600020905b81548152906001019060200180831161186f57829003601f168201915b5050505050815260200190600101906117f4565b50505060048701805460408051602080840282018101909252828152935060009084015b828210156113c05783829060005260206000200180546118e390614119565b80601f016020809104026020016040519081016040528092919081815260200182805461190f90614119565b801561195c5780601f106119315761010080835404028352916020019161195c565b820191906000526020600020905b81548152906001019060200180831161193f57829003601f168201915b5050505050815260200190600101906118c4565b50600092915050565b600061155b838361199560408051602081019091526000815290565b612631565b600060646119a78361144b565b604051632394e7a360e21b8152600481018590527f00000000000000000000000000000000000000000000000000000000000000006001600160a01b031690638e539e8c90602401602060405180830381865afa158015611a0c573d6000803e3d6000fd5b505050506040513d601f19601f82011682018060405250810190611a3091906141dd565b611a3a91906141f6565b610a44919061420d565b60008181526004602090815260409182902060018101805484518185028101850190955280855291936113d393909290830182828015611aad57602002820191906000526020600020905b81546001600160a01b03168152600190910190602001808311611a8f575b505050505082600201805480602002602001604051908101604052809291908181526020018280548015611b0057602002820191906000526020600020905b815481526020019060010190808311611aec575b5050505050611ca884600301805480602002602001604051908101604052809291908181526020016000905b82821015611bd8578382906000526020600020018054611b4b90614119565b80601f0160208091040260200160405190810160405280929190818152602001828054611b7790614119565b8015611bc45780601f10611b9957610100808354040283529160200191611bc4565b820191906000526020600020905b815481529060010190602001808311611ba757829003601f168201915b505050505081526020019060010190611b2c565b50505060048701805460408051602080840282018101909252828152935060009084015b828210156113c0578382906000526020600020018054611c1b90614119565b80601f0160208091040260200160405190810160405280929190818152602001828054611c4790614119565b8015611c945780601f10611c6957610100808354040283529160200191611c94565b820191906000526020600020905b815481529060010190602001808311611c7757829003601f168201915b505050505081526020019060010190611bfc565b8460090154610c56565b60006001600160e01b03821115611d1b5760405162461bcd60e51b815260206004820152602760248201527f53616665436173743a2076616c756520646f65736e27742066697420696e20326044820152663234206269747360c81b6064820152608401610b88565b5090565b600080611d3d84611d2f43611d9c565b611d3886611cb2565b61279d565b6001600160e01b0391821693501690505b9250929050565b80546000908015611d9357611d7d83611d6f600184614169565b600091825260209091200190565b54600160201b90046001600160e01b031661155b565b60009392505050565b600063ffffffff821115611d1b5760405162461bcd60e51b815260206004820152602660248201527f53616665436173743a2076616c756520646f65736e27742066697420696e203360448201526532206269747360d01b6064820152608401610b88565b60006001600160e01b0319821663bf26d89760e01b1480611e3257506001600160e01b031982166379dd796f60e01b145b80611e4d57506001600160e01b03198216630271189760e51b145b80610a4457506301ffc9a760e01b6001600160e01b0319831614610a44565b6000610a44611e79612940565b8360405161190160f01b6020820152602281018390526042810182905260009060620160405160208183030381529060405280519060200120905092915050565b6000806000611ecb87878787612a67565b91509150610d7381612b2b565b6000858152600160208190526040822090611ef2886110bb565b6007811115611f0357611f03613cab565b14611f5c5760405162461bcd60e51b815260206004820152602360248201527f476f7665726e6f723a20766f7465206e6f742063757272656e746c792061637460448201526269766560e81b6064820152608401610b88565b604080516020810190915281546001600160401b031690819052600090611f8590889086612631565b9050611f948888888488612c75565b8351600003611fe957866001600160a01b03167fb8e138887d0aa13bab447e82de9d5c1777041ecd21ca36ba824ff1e6c07ddda489888489604051611fdc949392919061422f565b60405180910390a26110b0565b866001600160a01b03167fe2babfbac5889a709b63bb7f598b324e08bc5a4fb9ec647fb3cbc9ec07eb8712898884898960405161202a959493929190614257565b60405180910390a2979650505050505050565b60006120588254600f81810b600160801b909204900b131590565b1561207657604051631ed9509560e11b815260040160405180910390fd5b508054600f0b6000818152600180840160205260408220805492905583546fffffffffffffffffffffffffffffffff191692016001600160801b03169190911790915590565b606481111561213f5760405162461bcd60e51b815260206004820152604360248201527f476f7665726e6f72566f74657351756f72756d4672616374696f6e3a2071756f60448201527f72756d4e756d657261746f72206f7665722071756f72756d44656e6f6d696e616064820152623a37b960e91b608482015260a401610b88565b6000612149611562565b9050801580159061215a5750600654155b156121be5760408051808201909152600081526006906020810161217d84611cb2565b6001600160e01b039081169091528254600181018455600093845260209384902083519490930151909116600160201b0263ffffffff909316929092179101555b6121c9600683611d1f565b505060408051828152602081018490527f0553476bf02ef2726e8ce5ced78d63e26e602e4a2257b1f559418e24b4633997910160405180910390a15050565b61228e565b845181101561228c57306001600160a01b03168582815181106122325761223261417c565b60200260200101516001600160a01b03160361227c5761227c83828151811061225d5761225d61417c565b6020026020010151805190602001206002612e1290919063ffffffff16565b6122858161429d565b905061220d565b505b5050505050565b61228e8585858585612e4e565b6000611542858585856122c060408051602081019091526000815290565b611ed8565b6000818152600160205260408120600281015460ff16156122e95750600792915050565b6002810154610100900460ff16156123045750600292915050565b600061230f84610d7d565b9050806000036123615760405162461bcd60e51b815260206004820152601d60248201527f476f7665726e6f723a20756e6b6e6f776e2070726f706f73616c2069640000006044820152606401610b88565b438110612372575060009392505050565b600061237d8561158c565b905043811061239157506001949350505050565b61239a85612f44565b80156123bc575060008581526004602052604090206006810154600590910154115b156123cc57506004949350505050565b506003949350505050565b6060600082516001600160401b038111156123f4576123f461370d565b60405190808252806020026020018201604052801561242757816020015b60608152602001906001900390816124125790505b50905060005b8451811015612501578481815181106124485761244861417c565b6020026020010151516000146124b85784818151811061246a5761246a61417c565b60200260200101518051906020012084828151811061248b5761248b61417c565b60200260200101516040516020016124a49291906142b6565b6040516020818303038152906040526124d3565b8381815181106124ca576124ca61417c565b60200260200101515b8282815181106124e5576124e561417c565b6020026020010181905250806124fa9061429d565b905061242d565b509392505050565b600061154285858585612f6c565b60004382106125685760405162461bcd60e51b815260206004820181905260248201527f436865636b706f696e74733a20626c6f636b206e6f7420796574206d696e65646044820152606401610b88565b600061257383611d9c565b845490915060006125868684838561308a565b905080156125b35761259d86611d6f600184614169565b54600160201b90046001600160e01b03166125b6565b60005b6001600160e01b03169695505050505050565b600061262533868686516001600160401b038111156125ea576125ea61370d565b60405190808252806020026020018201604052801561261d57816020015b60608152602001906001900390816126085790505b5087876126e0565b611542858585856130e0565b604051630748d63560e31b81526001600160a01b038481166004830152602482018490526000917f000000000000000000000000000000000000000000000000000000000000000090911690633a46b1a890604401602060405180830381865afa1580156126a3573d6000803e3d6000fd5b505050506040513d601f19601f8201168201806040525081019061155891906141dd565b606083156126d657508161155b565b61155b8383613395565b8051602082012060006126fe87876126f888886123d7565b856116ad565b60008181526004602052604090206009810154919250906127925780546001600160a01b0319166001600160a01b038a16178155875161274790600183019060208b01906134aa565b50865161275d90600283019060208a019061350b565b5085516127739060038301906020890190613546565b5084516127899060048301906020880190613598565b50600981018390555b505050505050505050565b8254600090819080156128e35760006127bb87611d6f600185614169565b60408051808201909152905463ffffffff808216808452600160201b9092046001600160e01b03166020840152919250908716101561283c5760405162461bcd60e51b815260206004820152601760248201527f436865636b706f696e743a20696e76616c6964206b65790000000000000000006044820152606401610b88565b805163ffffffff808816911603612884578461285d88611d6f600186614169565b80546001600160e01b0392909216600160201b0263ffffffff9092169190911790556128d3565b6040805180820190915263ffffffff80881682526001600160e01b0380881660208085019182528b54600181018d5560008d81529190912094519151909216600160201b029216919091179101555b6020015192508391506129389050565b50506040805180820190915263ffffffff80851682526001600160e01b0380851660208085019182528854600181018a5560008a815291822095519251909316600160201b0291909316179201919091559050815b935093915050565b6000306001600160a01b037f00000000000000000000000000000000000000000000000000000000000000001614801561299957507f000000000000000000000000000000000000000000000000000000000000000046145b156129c357507f000000000000000000000000000000000000000000000000000000000000000090565b50604080517f00000000000000000000000000000000000000000000000000000000000000006020808301919091527f0000000000000000000000000000000000000000000000000000000000000000828401527f000000000000000000000000000000000000000000000000000000000000000060608301524660808301523060a0808401919091528351808403909101815260c0909201909252805191012090565b6000807f7fffffffffffffffffffffffffffffff5d576e7357a4501ddfe92f46681b20a0831115612a9e5750600090506003612b22565b6040805160008082526020820180845289905260ff881692820192909252606081018690526080810185905260019060a0016020604051602081039080840390855afa158015612af2573d6000803e3d6000fd5b5050604051601f1901519150506001600160a01b038116612b1b57600060019250925050612b22565b9150600090505b94509492505050565b6000816004811115612b3f57612b3f613cab565b03612b475750565b6001816004811115612b5b57612b5b613cab565b03612ba85760405162461bcd60e51b815260206004820152601860248201527f45434453413a20696e76616c6964207369676e617475726500000000000000006044820152606401610b88565b6002816004811115612bbc57612bbc613cab565b03612c095760405162461bcd60e51b815260206004820152601f60248201527f45434453413a20696e76616c6964207369676e6174757265206c656e677468006044820152606401610b88565b6003816004811115612c1d57612c1d613cab565b03610bb15760405162461bcd60e51b815260206004820152602260248201527f45434453413a20696e76616c6964207369676e6174757265202773272076616c604482015261756560f01b6064820152608401610b88565b60008581526004602090815260408083206001600160a01b038816845260088101909252909120805460ff1615612d045760405162461bcd60e51b815260206004820152602d60248201527f476f7665726e6f72436f6d7061746962696c697479427261766f3a20766f746560448201526c08185b1c9958591e4818d85cdd609a1b6064820152608401610b88565b805460ff86166101000261ffff19909116176001178155612d24846133bf565b81546001600160601b039190911662010000026dffffffffffffffffffffffff00001990911617815560ff8516612d745783826006016000828254612d6991906142e7565b909155506116a49050565b60001960ff861601612d945783826005016000828254612d6991906142e7565b60011960ff861601612db45783826007016000828254612d6991906142e7565b60405162461bcd60e51b815260206004820152602d60248201527f476f7665726e6f72436f6d7061746962696c697479427261766f3a20696e766160448201526c6c696420766f7465207479706560981b6064820152608401610b88565b8154600160801b90819004600f0b6000818152600180860160205260409091209390935583546001600160801b03908116939091011602179055565b600060405180606001604052806027815260200161454f60279139905060005b85518110156116a457600080878381518110612e8c57612e8c61417c565b60200260200101516001600160a01b0316878481518110612eaf57612eaf61417c565b6020026020010151878581518110612ec957612ec961417c565b6020026020010151604051612ede91906142fa565b60006040518083038185875af1925050503d8060008114612f1b576040519150601f19603f3d011682016040523d82523d6000602084013e612f20565b606091505b5091509150612f308282866126c7565b50505080612f3d9061429d565b9050612e6e565b60008181526004602052604081206005810154612f6361094a85610d7d565b11159392505050565b600080612f7b868686866116ad565b90506000612f88826110bb565b90506002816007811115612f9e57612f9e613cab565b14158015612fbe57506006816007811115612fbb57612fbb613cab565b14155b8015612fdc57506007816007811115612fd957612fd9613cab565b14155b6130285760405162461bcd60e51b815260206004820152601d60248201527f476f7665726e6f723a2070726f706f73616c206e6f74206163746976650000006044820152606401610b88565b60008281526001602052604090819020600201805461ff001916610100179055517f789cf55be980739dad1d0699b93b58e806b51c9d96619bfa8fe0a28abaa7b30c906130789084815260200190565b60405180910390a15095945050505050565b60005b818310156125015760006130a18484613427565b60008781526020902090915063ffffffff86169082015463ffffffff1611156130cc578092506130da565b6130d78160016142e7565b93505b5061308d565b6000806130f2336108fe600143614169565b101561315a5760405162461bcd60e51b815260206004820152603160248201527f476f7665726e6f723a2070726f706f73657220766f7465732062656c6f7720706044820152701c9bdc1bdcd85b081d1a1c995cda1bdb19607a1b6064820152608401610b88565b600061316f86868686805190602001206116ad565b905084518651146131925760405162461bcd60e51b8152600401610b8890614316565b83518651146131b35760405162461bcd60e51b8152600401610b8890614316565b60008651116132045760405162461bcd60e51b815260206004820152601860248201527f476f7665726e6f723a20656d7074792070726f706f73616c00000000000000006044820152606401610b88565b600081815260016020908152604091829020825191820190925281546001600160401b031690819052156132845760405162461bcd60e51b815260206004820152602160248201527f476f7665726e6f723a2070726f706f73616c20616c72656164792065786973746044820152607360f81b6064820152608401610b88565b60006132906014613442565b61329943613442565b6132a39190614357565b905060006132b16064613442565b6132bb9083614357565b835467ffffffffffffffff19166001600160401b038416178455905060018301805467ffffffffffffffff19166001600160401b0383161790557f7d84a6263ae0d98d3329bd7b46bb4e8d6f98cd35a7adb45c274c8b7fd5ebd5e084338b8b8d516001600160401b038111156133335761333361370d565b60405190808252806020026020018201604052801561336657816020015b60608152602001906001900390816133515790505b508c88888e6040516133809998979695949392919061437e565b60405180910390a15091979650505050505050565b8151156133a55781518083602001fd5b8060405162461bcd60e51b8152600401610b8891906138b8565b60006001600160601b03821115611d1b5760405162461bcd60e51b815260206004820152602660248201527f53616665436173743a2076616c756520646f65736e27742066697420696e203960448201526536206269747360d01b6064820152608401610b88565b6000613436600284841861420d565b61155b908484166142e7565b60006001600160401b03821115611d1b5760405162461bcd60e51b815260206004820152602660248201527f53616665436173743a2076616c756520646f65736e27742066697420696e203660448201526534206269747360d01b6064820152608401610b88565b8280548282559060005260206000209081019282156134ff579160200282015b828111156134ff57825182546001600160a01b0319166001600160a01b039091161782556020909201916001909101906134ca565b50611d1b9291506135ea565b8280548282559060005260206000209081019282156134ff579160200282015b828111156134ff57825182559160200191906001019061352b565b82805482825590600052602060002090810192821561358c579160200282015b8281111561358c578251829061357c9082614467565b5091602001919060010190613566565b50611d1b9291506135ff565b8280548282559060005260206000209081019282156135de579160200282015b828111156135de57825182906135ce9082614467565b50916020019190600101906135b8565b50611d1b92915061361c565b5b80821115611d1b57600081556001016135eb565b80821115611d1b5760006136138282613639565b506001016135ff565b80821115611d1b5760006136308282613639565b5060010161361c565b50805461364590614119565b6000825580601f10613655575050565b601f016020900490600052602060002090810190610bb191906135ea565b60006020828403121561368557600080fd5b5035919050565b60006020828403121561369e57600080fd5b81356001600160e01b03198116811461155b57600080fd5b803560ff811681146136c757600080fd5b919050565b60008083601f8401126136de57600080fd5b5081356001600160401b038111156136f557600080fd5b602083019150836020828501011115611d4e57600080fd5b634e487b7160e01b600052604160045260246000fd5b604051601f8201601f191681016001600160401b038111828210171561374b5761374b61370d565b604052919050565b600082601f83011261376457600080fd5b81356001600160401b0381111561377d5761377d61370d565b613790601f8201601f1916602001613723565b8181528460208386010111156137a557600080fd5b816020850160208301376000918101602001919091529392505050565b60008060008060008060008060e0898b0312156137de57600080fd5b883597506137ee60208a016136b6565b965060408901356001600160401b038082111561380a57600080fd5b6138168c838d016136cc565b909850965060608b013591508082111561382f57600080fd5b5061383c8b828c01613753565b94505061384b60808a016136b6565b925060a0890135915060c089013590509295985092959890939650565b60005b8381101561388357818101518382015260200161386b565b50506000910152565b600081518084526138a4816020860160208601613868565b601f01601f19169290920160200192915050565b60208152600061155b602083018461388c565b80356001600160a01b03811681146136c757600080fd5b600080600080608085870312156138f857600080fd5b613901856138cb565b935061390f602086016138cb565b92506040850135915060608501356001600160401b0381111561393157600080fd5b61393d87828801613753565b91505092959194509250565b60006001600160401b038211156139625761396261370d565b5060051b60200190565b600082601f83011261397d57600080fd5b8135602061399261398d83613949565b613723565b82815260059290921b840181019181810190868411156139b157600080fd5b8286015b848110156139d3576139c6816138cb565b83529183019183016139b5565b509695505050505050565b600082601f8301126139ef57600080fd5b813560206139ff61398d83613949565b82815260059290921b84018101918181019086841115613a1e57600080fd5b8286015b848110156139d35780358352918301918301613a22565b600082601f830112613a4a57600080fd5b81356020613a5a61398d83613949565b82815260059290921b84018101918181019086841115613a7957600080fd5b8286015b848110156139d35780356001600160401b03811115613a9c5760008081fd5b613aaa8986838b0101613753565b845250918301918301613a7d565b60008060008060808587031215613ace57600080fd5b84356001600160401b0380821115613ae557600080fd5b613af18883890161396c565b95506020870135915080821115613b0757600080fd5b613b13888389016139de565b94506040870135915080821115613b2957600080fd5b50613b3687828801613a39565b949793965093946060013593505050565b600081518084526020808501945080840160005b83811015613b805781516001600160a01b031687529582019590820190600101613b5b565b509495945050505050565b600081518084526020808501945080840160005b83811015613b8057815187529582019590820190600101613b9f565b600081518084526020808501808196508360051b8101915082860160005b85811015613c03578284038952613bf184835161388c565b98850198935090840190600101613bd9565b5091979650505050505050565b608081526000613c236080830187613b47565b8281036020840152613c358187613b8b565b90508281036040840152613c498186613bbb565b905082810360608401526110b08185613bbb565b600080600080600060a08688031215613c7557600080fd5b85359450613c85602087016136b6565b9350613c93604087016136b6565b94979396509394606081013594506080013592915050565b634e487b7160e01b600052602160045260246000fd5b6020810160088310613ce357634e487b7160e01b600052602160045260246000fd5b91905290565b60008060408385031215613cfc57600080fd5b82359150613d0c602084016138cb565b90509250929050565b60008060408385031215613d2857600080fd5b82359150613d0c602084016136b6565b600080600080600060808688031215613d5057600080fd5b85359450613d60602087016136b6565b935060408601356001600160401b0380821115613d7c57600080fd5b613d8889838a016136cc565b90955093506060880135915080821115613da157600080fd5b50613dae88828901613753565b9150509295509295909350565b60008060008060608587031215613dd157600080fd5b84359350613de1602086016136b6565b925060408501356001600160401b03811115613dfc57600080fd5b613e08878288016136cc565b95989497509550505050565b60008060008060808587031215613e2a57600080fd5b84356001600160401b0380821115613e4157600080fd5b613e4d8883890161396c565b95506020870135915080821115613e6357600080fd5b613e6f888389016139de565b94506040870135915080821115613e8557600080fd5b613e9188838901613a39565b93506060870135915080821115613ea757600080fd5b5061393d87828801613753565b600080600060608486031215613ec957600080fd5b613ed2846138cb565b92506020840135915060408401356001600160401b03811115613ef457600080fd5b613f0086828701613753565b9150509250925092565b600080600080600060a08688031215613f2257600080fd5b613f2b866138cb565b9450613f39602087016138cb565b935060408601356001600160401b0380821115613f5557600080fd5b613f6189838a016139de565b94506060880135915080821115613f7757600080fd5b613f8389838a016139de565b93506080880135915080821115613da157600080fd5b60008060008060608587031215613faf57600080fd5b613fb8856138cb565b93506020850135925060408501356001600160401b03811115613dfc57600080fd5b600080600080600060a08688031215613ff257600080fd5b85356001600160401b038082111561400957600080fd5b61401589838a0161396c565b9650602088013591508082111561402b57600080fd5b61403789838a016139de565b9550604088013591508082111561404d57600080fd5b61405989838a01613a39565b9450606088013591508082111561406f57600080fd5b613f8389838a01613a39565b6000806040838503121561408e57600080fd5b614097836138cb565b946020939093013593505050565b600080600080600060a086880312156140bd57600080fd5b6140c6866138cb565b94506140d4602087016138cb565b9350604086013592506060860135915060808601356001600160401b038111156140fd57600080fd5b613dae88828901613753565b8183823760009101908152919050565b600181811c9082168061412d57607f821691505b60208210810361414d57634e487b7160e01b600052602260045260246000fd5b50919050565b634e487b7160e01b600052601160045260246000fd5b81810381811115610a4457610a44614153565b634e487b7160e01b600052603260045260246000fd5b6080815260006141a56080830187613b47565b82810360208401526141b78187613b8b565b905082810360408401526141cb8186613bbb565b91505082606083015295945050505050565b6000602082840312156141ef57600080fd5b5051919050565b8082028115828204841417610a4457610a44614153565b60008261422a57634e487b7160e01b600052601260045260246000fd5b500490565b84815260ff8416602082015282604082015260806060820152600061152a608083018461388c565b85815260ff8516602082015283604082015260a06060820152600061427f60a083018561388c565b8281036080840152614291818561388c565b98975050505050505050565b6000600182016142af576142af614153565b5060010190565b6001600160e01b03198316815281516000906142d9816004850160208701613868565b919091016004019392505050565b80820180821115610a4457610a44614153565b6000825161430c818460208701613868565b9190910192915050565b60208082526021908201527f476f7665726e6f723a20696e76616c69642070726f706f73616c206c656e67746040820152600d60fb1b606082015260800190565b6001600160401b0381811683821601908082111561437757614377614153565b5092915050565b8981526001600160a01b0389166020820152610120604082018190526000906143a98382018b613b47565b905082810360608401526143bd818a613b8b565b905082810360808401526143d18189613bbb565b905082810360a08401526143e58188613bbb565b6001600160401b0387811660c0860152861660e08501528381036101008501529050614411818561388c565b9c9b505050505050505050505050565b601f8211156113d357600081815260208120601f850160051c810160208610156144485750805b601f850160051c820191505b8181101561228c57828155600101614454565b81516001600160401b038111156144805761448061370d565b6144948161448e8454614119565b84614421565b602080601f8311600181146144c957600084156144b15750858301515b600019600386901b1c1916600185901b17855561228c565b600085815260208120601f198616915b828110156144f8578886015182559484019460019091019084016144d9565b50858210156145165787850151600019600388901b60f8161c191681555b5050505050600190811b0190555056fe476f7665726e6f723a2072656c617920726576657274656420776974686f7574206d657373616765476f7665726e6f723a2063616c6c20726576657274656420776974686f7574206d657373616765a2646970667358221220cfdcf6ae123d97155e98fec1c30fd279e8f5787d29afe5ef8237367d473aba7c64736f6c634300081100336101406040523480156200001257600080fd5b506040518060400160405280600781526020016626bcaa37b5b2b760c91b81525080604051806040016040528060018152602001603160f81b8152506040518060400160405280600781526020016626bcaa37b5b2b760c91b815250604051806040016040528060038152602001624d544b60e81b81525081600390816200009b9190620007bc565b506004620000aa8282620007bc565b5050825160209384012082519284019290922060e08390526101008190524660a0818152604080517f8b73c3c69bb8fe3d512ecc4cf759cc79239f7b179b0ffacaa9a75d522b39400f818901819052818301979097526060810194909452608080850193909352308483018190528151808603909301835260c09485019091528151919096012090529290925261012052506200015490503369021e19e0c9bab24000006200015a565b620008ca565b6200017182826200017560201b62000a021760201c565b5050565b6200018c82826200022c60201b62000a921760201c565b6001600160e01b03620001a0620002f98216565b11156200020d5760405162461bcd60e51b815260206004820152603060248201527f4552433230566f7465733a20746f74616c20737570706c79207269736b73206f60448201526f766572666c6f77696e6720766f74657360801b60648201526084015b60405180910390fd5b62000226600962000b5d620002ff60201b178362000316565b50505050565b6001600160a01b038216620002845760405162461bcd60e51b815260206004820152601f60248201527f45524332303a206d696e7420746f20746865207a65726f206164647265737300604482015260640162000204565b80600260008282546200029891906200089e565b90915550506001600160a01b038216600081815260208181526040808320805486019055518481527fddf252ad1be2c89b69c2b068fc378daa952ba7f163c4a11628f55a4df523b3ef910160405180910390a36200017160008383620004ad565b60025490565b60006200030d82846200089e565b90505b92915050565b825460009081908181156200037657620003458762000337600185620008b4565b600091825260209091200190565b60408051808201909152905463ffffffff8116825264010000000090046001600160e01b031660208201526200038b565b60408051808201909152600080825260208201525b905080602001516001600160e01b03169350620003a984868860201c565b9250600082118015620003c25750805163ffffffff1643145b156200041957620003de83620004c560201b62000b691760201c565b620003f08862000337600186620008b4565b80546001600160e01b03929092166401000000000263ffffffff9092169190911790556200049e565b8660405180604001604052806200043b436200053460201b62000bd61760201c565b63ffffffff1681526020016200045c86620004c560201b62000b691760201c565b6001600160e01b0390811690915282546001810184556000938452602093849020835194909301519091166401000000000263ffffffff909316929092179101555b5050935093915050565b505050565b620004a88383836200059b60201b62000c3b1760201c565b60006001600160e01b03821115620005305760405162461bcd60e51b815260206004820152602760248201527f53616665436173743a2076616c756520646f65736e27742066697420696e20326044820152663234206269747360c81b606482015260840162000204565b5090565b600063ffffffff821115620005305760405162461bcd60e51b815260206004820152602660248201527f53616665436173743a2076616c756520646f65736e27742066697420696e203360448201526532206269747360d01b606482015260840162000204565b620005b3838383620004a860201b62000c6d1760201c565b6001600160a01b03838116600090815260076020526040808220548584168352912054620004a892918216911683818314801590620005f25750600081115b15620004a8576001600160a01b038316156200067f576001600160a01b0383166000908152600860209081526040822082916200063c91906200070a901b62000c72178562000316565b91509150846001600160a01b0316600080516020620025ba833981519152838360405162000674929190918252602082015260400190565b60405180910390a250505b6001600160a01b03821615620004a8576001600160a01b038216600090815260086020908152604082208291620006c39190620002ff901b62000b5d178562000316565b91509150836001600160a01b0316600080516020620025ba8339815191528383604051620006fb929190918252602082015260400190565b60405180910390a25050505050565b60006200030d8284620008b4565b634e487b7160e01b600052604160045260246000fd5b600181811c908216806200074357607f821691505b6020821081036200076457634e487b7160e01b600052602260045260246000fd5b50919050565b601f821115620004a857600081815260208120601f850160051c81016020861015620007935750805b601f850160051c820191505b81811015620007b4578281556001016200079f565b505050505050565b81516001600160401b03811115620007d857620007d862000718565b620007f081620007e984546200072e565b846200076a565b602080601f8311600181146200082857600084156200080f5750858301515b600019600386901b1c1916600185901b178555620007b4565b600085815260208120601f198616915b82811015620008595788860151825594840194600190910190840162000838565b5085821015620008785787850151600019600388901b60f8161c191681555b5050505050600190811b01905550565b634e487b7160e01b600052601160045260246000fd5b8082018082111562000310576200031062000888565b8181038181111562000310576200031062000888565b60805160a05160c05160e0516101005161012051611ca06200091a600039600061104a015260006110990152600061107401526000610fcd01526000610ff7015260006110210152611ca06000f3fe608060405234801561001057600080fd5b50600436106101425760003560e01c806370a08231116100b8578063a457c2d71161007c578063a457c2d7146102d5578063a9059cbb146102e8578063c3cda520146102fb578063d505accf1461030e578063dd62ed3e14610321578063f1127ed81461033457600080fd5b806370a082311461026b5780637ecebe00146102945780638e539e8c146102a757806395d89b41146102ba5780639ab24eb0146102c257600080fd5b80633644e5151161010a5780633644e515146101bc57806339509351146101c45780633a46b1a8146101d7578063587cde1e146101ea5780635c19a95c1461022e5780636fcfff451461024357600080fd5b806306fdde0314610147578063095ea7b31461016557806318160ddd1461018857806323b872dd1461019a578063313ce567146101ad575b600080fd5b61014f610371565b60405161015c919061194c565b60405180910390f35b6101786101733660046119b6565b610403565b604051901515815260200161015c565b6002545b60405190815260200161015c565b6101786101a83660046119e0565b61041d565b6040516012815260200161015c565b61018c610441565b6101786101d23660046119b6565b610450565b61018c6101e53660046119b6565b610472565b6102166101f8366004611a1c565b6001600160a01b039081166000908152600760205260409020541690565b6040516001600160a01b03909116815260200161015c565b61024161023c366004611a1c565b6104f1565b005b610256610251366004611a1c565b6104fe565b60405163ffffffff909116815260200161015c565b61018c610279366004611a1c565b6001600160a01b031660009081526020819052604090205490565b61018c6102a2366004611a1c565b610520565b61018c6102b5366004611a37565b61053e565b61014f61059a565b61018c6102d0366004611a1c565b6105a9565b6101786102e33660046119b6565b610630565b6101786102f63660046119b6565b6106ab565b610241610309366004611a61565b6106b9565b61024161031c366004611ab9565b6107ef565b61018c61032f366004611b23565b610953565b610347610342366004611b56565b61097e565b60408051825163ffffffff1681526020928301516001600160e01b0316928101929092520161015c565b60606003805461038090611b96565b80601f01602080910402602001604051908101604052809291908181526020018280546103ac90611b96565b80156103f95780601f106103ce576101008083540402835291602001916103f9565b820191906000526020600020905b8154815290600101906020018083116103dc57829003601f168201915b5050505050905090565b600033610411818585610c7e565b60019150505b92915050565b60003361042b858285610da2565b610436858585610e16565b506001949350505050565b600061044b610fc0565b905090565b6000336104118185856104638383610953565b61046d9190611be0565b610c7e565b60004382106104c85760405162461bcd60e51b815260206004820152601f60248201527f4552433230566f7465733a20626c6f636b206e6f7420796574206d696e65640060448201526064015b60405180910390fd5b6001600160a01b03831660009081526008602052604090206104ea90836110e7565b9392505050565b6104fb33826111de565b50565b6001600160a01b03811660009081526008602052604081205461041790610bd6565b6001600160a01b038116600090815260056020526040812054610417565b600043821061058f5760405162461bcd60e51b815260206004820152601f60248201527f4552433230566f7465733a20626c6f636b206e6f7420796574206d696e65640060448201526064016104bf565b6104176009836110e7565b60606004805461038090611b96565b6001600160a01b038116600090815260086020526040812054801561061d576001600160a01b03831660009081526008602052604090206105eb600183611bf3565b815481106105fb576105fb611c06565b60009182526020909120015464010000000090046001600160e01b0316610620565b60005b6001600160e01b03169392505050565b6000338161063e8286610953565b90508381101561069e5760405162461bcd60e51b815260206004820152602560248201527f45524332303a2064656372656173656420616c6c6f77616e63652062656c6f77604482015264207a65726f60d81b60648201526084016104bf565b6104368286868403610c7e565b600033610411818585610e16565b834211156107095760405162461bcd60e51b815260206004820152601d60248201527f4552433230566f7465733a207369676e6174757265206578706972656400000060448201526064016104bf565b604080517fe48329057bfd03d55e49b547132e39cffd9c1820ad7b9d4c5307691425d15adf60208201526001600160a01b0388169181019190915260608101869052608081018590526000906107839061077b9060a00160405160208183030381529060405280519060200120611257565b8585856112a5565b905061078e816112cd565b86146107dc5760405162461bcd60e51b815260206004820152601960248201527f4552433230566f7465733a20696e76616c6964206e6f6e63650000000000000060448201526064016104bf565b6107e681886111de565b50505050505050565b8342111561083f5760405162461bcd60e51b815260206004820152601d60248201527f45524332305065726d69743a206578706972656420646561646c696e6500000060448201526064016104bf565b60007f6e71edae12b1b97f4d1f60370fef10105fa2faae0126114a169c64845d6126c988888861086e8c6112cd565b6040805160208101969096526001600160a01b0394851690860152929091166060840152608083015260a082015260c0810186905260e00160405160208183030381529060405280519060200120905060006108c982611257565b905060006108d9828787876112a5565b9050896001600160a01b0316816001600160a01b03161461093c5760405162461bcd60e51b815260206004820152601e60248201527f45524332305065726d69743a20696e76616c6964207369676e6174757265000060448201526064016104bf565b6109478a8a8a610c7e565b50505050505050505050565b6001600160a01b03918216600090815260016020908152604080832093909416825291909152205490565b60408051808201909152600080825260208201526001600160a01b0383166000908152600860205260409020805463ffffffff84169081106109c2576109c2611c06565b60009182526020918290206040805180820190915291015463ffffffff8116825264010000000090046001600160e01b0316918101919091529392505050565b610a0c8282610a92565b6002546001600160e01b031015610a7e5760405162461bcd60e51b815260206004820152603060248201527f4552433230566f7465733a20746f74616c20737570706c79207269736b73206f60448201526f766572666c6f77696e6720766f74657360801b60648201526084016104bf565b610a8c6009610b5d836112f5565b50505050565b6001600160a01b038216610ae85760405162461bcd60e51b815260206004820152601f60248201527f45524332303a206d696e7420746f20746865207a65726f20616464726573730060448201526064016104bf565b8060026000828254610afa9190611be0565b90915550506001600160a01b038216600081815260208181526040808320805486019055518481527fddf252ad1be2c89b69c2b068fc378daa952ba7f163c4a11628f55a4df523b3ef910160405180910390a3610b5960008383611449565b5050565b60006104ea8284611be0565b60006001600160e01b03821115610bd25760405162461bcd60e51b815260206004820152602760248201527f53616665436173743a2076616c756520646f65736e27742066697420696e20326044820152663234206269747360c81b60648201526084016104bf565b5090565b600063ffffffff821115610bd25760405162461bcd60e51b815260206004820152602660248201527f53616665436173743a2076616c756520646f65736e27742066697420696e203360448201526532206269747360d01b60648201526084016104bf565b6001600160a01b03838116600090815260076020526040808220548584168352912054610c6d92918216911683611454565b505050565b60006104ea8284611bf3565b6001600160a01b038316610ce05760405162461bcd60e51b8152602060048201526024808201527f45524332303a20617070726f76652066726f6d20746865207a65726f206164646044820152637265737360e01b60648201526084016104bf565b6001600160a01b038216610d415760405162461bcd60e51b815260206004820152602260248201527f45524332303a20617070726f766520746f20746865207a65726f206164647265604482015261737360f01b60648201526084016104bf565b6001600160a01b0383811660008181526001602090815260408083209487168084529482529182902085905590518481527f8c5be1e5ebec7d5bd14f71427d1e84f3dd0314c0f7b2291e5b200ac8c7c3b925910160405180910390a3505050565b6000610dae8484610953565b90506000198114610a8c5781811015610e095760405162461bcd60e51b815260206004820152601d60248201527f45524332303a20696e73756666696369656e7420616c6c6f77616e636500000060448201526064016104bf565b610a8c8484848403610c7e565b6001600160a01b038316610e7a5760405162461bcd60e51b815260206004820152602560248201527f45524332303a207472616e736665722066726f6d20746865207a65726f206164604482015264647265737360d81b60648201526084016104bf565b6001600160a01b038216610edc5760405162461bcd60e51b815260206004820152602360248201527f45524332303a207472616e7366657220746f20746865207a65726f206164647260448201526265737360e81b60648201526084016104bf565b6001600160a01b03831660009081526020819052604090205481811015610f545760405162461bcd60e51b815260206004820152602660248201527f45524332303a207472616e7366657220616d6f756e7420657863656564732062604482015265616c616e636560d01b60648201526084016104bf565b6001600160a01b03848116600081815260208181526040808320878703905593871680835291849020805487019055925185815290927fddf252ad1be2c89b69c2b068fc378daa952ba7f163c4a11628f55a4df523b3ef910160405180910390a3610a8c848484611449565b6000306001600160a01b037f00000000000000000000000000000000000000000000000000000000000000001614801561101957507f000000000000000000000000000000000000000000000000000000000000000046145b1561104357507f000000000000000000000000000000000000000000000000000000000000000090565b50604080517f00000000000000000000000000000000000000000000000000000000000000006020808301919091527f0000000000000000000000000000000000000000000000000000000000000000828401527f000000000000000000000000000000000000000000000000000000000000000060608301524660808301523060a0808401919091528351808403909101815260c0909201909252805191012090565b81546000908181600581111561114157600061110284611591565b61110c9085611bf3565b600088815260209020909150869082015463ffffffff1611156111315780915061113f565b61113c816001611be0565b92505b505b8082101561118e5760006111558383611679565b600088815260209020909150869082015463ffffffff16111561117a57809150611188565b611185816001611be0565b92505b50611141565b80156111c8576111b1866111a3600184611bf3565b600091825260209091200190565b5464010000000090046001600160e01b03166111cb565b60005b6001600160e01b03169695505050505050565b6001600160a01b038281166000818152600760208181526040808420805485845282862054949093528787166001600160a01b03198416811790915590519190951694919391928592917f3134e8a2e6d97e929a7e54011ea5485d7d196dd5f0ba4d4ef95803e8e3fc257f9190a4610a8c828483611454565b6000610417611264610fc0565b8360405161190160f01b6020820152602281018390526042810182905260009060620160405160208183030381529060405280519060200120905092915050565b60008060006112b687878787611694565b915091506112c381611758565b5095945050505050565b6001600160a01b03811660009081526005602052604090208054600181018255905b50919050565b8254600090819081811561134257611312876111a3600185611bf3565b60408051808201909152905463ffffffff8116825264010000000090046001600160e01b03166020820152611357565b60408051808201909152600080825260208201525b905080602001516001600160e01b0316935061137784868863ffffffff16565b925060008211801561138f5750805163ffffffff1643145b156113d45761139d83610b69565b6113ac886111a3600186611bf3565b80546001600160e01b03929092166401000000000263ffffffff90921691909117905561143f565b8660405180604001604052806113e943610bd6565b63ffffffff1681526020016113fd86610b69565b6001600160e01b0390811690915282546001810184556000938452602093849020835194909301519091166401000000000263ffffffff909316929092179101555b5050935093915050565b610c6d838383610c3b565b816001600160a01b0316836001600160a01b0316141580156114765750600081115b15610c6d576001600160a01b03831615611504576001600160a01b038316600090815260086020526040812081906114b190610c72856112f5565b91509150846001600160a01b03167fdec2bacdd2f05b59de34da9b523dff8be42e5e38e818c82fdb0bae774387a72483836040516114f9929190918252602082015260400190565b60405180910390a250505b6001600160a01b03821615610c6d576001600160a01b0382166000908152600860205260408120819061153a90610b5d856112f5565b91509150836001600160a01b03167fdec2bacdd2f05b59de34da9b523dff8be42e5e38e818c82fdb0bae774387a7248383604051611582929190918252602082015260400190565b60405180910390a25050505050565b6000816000036115a357506000919050565b600060016115b0846118a2565b901c6001901b905060018184816115c9576115c9611c1c565b048201901c905060018184816115e1576115e1611c1c565b048201901c905060018184816115f9576115f9611c1c565b048201901c9050600181848161161157611611611c1c565b048201901c9050600181848161162957611629611c1c565b048201901c9050600181848161164157611641611c1c565b048201901c9050600181848161165957611659611c1c565b048201901c90506104ea8182858161167357611673611c1c565b04611936565b60006116886002848418611c32565b6104ea90848416611be0565b6000807f7fffffffffffffffffffffffffffffff5d576e7357a4501ddfe92f46681b20a08311156116cb575060009050600361174f565b6040805160008082526020820180845289905260ff881692820192909252606081018690526080810185905260019060a0016020604051602081039080840390855afa15801561171f573d6000803e3d6000fd5b5050604051601f1901519150506001600160a01b0381166117485760006001925092505061174f565b9150600090505b94509492505050565b600081600481111561176c5761176c611c54565b036117745750565b600181600481111561178857611788611c54565b036117d55760405162461bcd60e51b815260206004820152601860248201527f45434453413a20696e76616c6964207369676e6174757265000000000000000060448201526064016104bf565b60028160048111156117e9576117e9611c54565b036118365760405162461bcd60e51b815260206004820152601f60248201527f45434453413a20696e76616c6964207369676e6174757265206c656e6774680060448201526064016104bf565b600381600481111561184a5761184a611c54565b036104fb5760405162461bcd60e51b815260206004820152602260248201527f45434453413a20696e76616c6964207369676e6174757265202773272076616c604482015261756560f01b60648201526084016104bf565b600080608083901c156118b757608092831c92015b604083901c156118c957604092831c92015b602083901c156118db57602092831c92015b601083901c156118ed57601092831c92015b600883901c156118ff57600892831c92015b600483901c1561191157600492831c92015b600283901c1561192357600292831c92015b600183901c156104175760010192915050565b600081831061194557816104ea565b5090919050565b600060208083528351808285015260005b818110156119795785810183015185820160400152820161195d565b506000604082860101526040601f19601f8301168501019250505092915050565b80356001600160a01b03811681146119b157600080fd5b919050565b600080604083850312156119c957600080fd5b6119d28361199a565b946020939093013593505050565b6000806000606084860312156119f557600080fd5b6119fe8461199a565b9250611a0c6020850161199a565b9150604084013590509250925092565b600060208284031215611a2e57600080fd5b6104ea8261199a565b600060208284031215611a4957600080fd5b5035919050565b803560ff811681146119b157600080fd5b60008060008060008060c08789031215611a7a57600080fd5b611a838761199a565b95506020870135945060408701359350611a9f60608801611a50565b92506080870135915060a087013590509295509295509295565b600080600080600080600060e0888a031215611ad457600080fd5b611add8861199a565b9650611aeb6020890161199a565b95506040880135945060608801359350611b0760808901611a50565b925060a0880135915060c0880135905092959891949750929550565b60008060408385031215611b3657600080fd5b611b3f8361199a565b9150611b4d6020840161199a565b90509250929050565b60008060408385031215611b6957600080fd5b611b728361199a565b9150602083013563ffffffff81168114611b8b57600080fd5b809150509250929050565b600181811c90821680611baa57607f821691505b6020821081036112ef57634e487b7160e01b600052602260045260246000fd5b634e487b7160e01b600052601160045260246000fd5b8082018082111561041757610417611bca565b8181038181111561041757610417611bca565b634e487b7160e01b600052603260045260246000fd5b634e487b7160e01b600052601260045260246000fd5b600082611c4f57634e487b7160e01b600052601260045260246000fd5b500490565b634e487b7160e01b600052602160045260246000fdfea264697066735822122046e0572fc4a67cdd31660a6b77940c5f5ff86d73c7b2e62300c06fe10b793f3a64736f6c63430008110033dec2bacdd2f05b59de34da9b523dff8be42e5e38e818c82fdb0bae774387a724",
  "devdoc": {
    "errors": {
      "Empty()": [
        {
          "details": "An operation (e.g. {front}) couldn't be completed due to the queue being empty."
        }
      ]
    },
    "kind": "dev",
    "methods": {
      "COUNTING_MODE()": {
        "details": "A description of the possible `support` values for {castVote} and the way these votes are counted, meant to be consumed by UIs to show correct vote options and interpret the results. The string is a URL-encoded sequence of key-value pairs that each describe one aspect, for example `support=bravo&quorum=for,abstain`. There are 2 standard keys: `support` and `quorum`. - `support=bravo` refers to the vote options 0 = Against, 1 = For, 2 = Abstain, as in `GovernorBravo`. - `quorum=bravo` means that only For votes are counted towards quorum. - `quorum=for,abstain` means that both For and Abstain votes are counted towards quorum. If a counting module makes use of encoded `params`, it should  include this under a `params` key with a unique name that describes the behavior. For example: - `params=fractional` might refer to a scheme where votes are divided fractionally between for/against/abstain. - `params=erc721` might refer to a scheme where specific NFTs are delegated to vote. NOTE: The string can be decoded by the standard https://developer.mozilla.org/en-US/docs/Web/API/URLSearchParams[`URLSearchParams`] JavaScript class."
      },
      "cancel(uint256)": {
        "details": "Cancels a proposal only if sender is the proposer, or proposer delegates dropped below proposal threshold."
      },
      "castVote(uint256,uint8)": {
        "details": "See {IGovernor-castVote}."
      },
      "castVoteBySig(uint256,uint8,uint8,bytes32,bytes32)": {
        "details": "See {IGovernor-castVoteBySig}."
      },
      "castVoteWithReason(uint256,uint8,string)": {
        "details": "See {IGovernor-castVoteWithReason}."
      },
      "castVoteWithReasonAndParams(uint256,uint8,string,bytes)": {
        "details": "See {IGovernor-castVoteWithReasonAndParams}."
      },
      "castVoteWithReasonAndParamsBySig(uint256,uint8,string,bytes,uint8,bytes32,bytes32)": {
        "details": "See {IGovernor-castVoteWithReasonAndParamsBySig}."
      },
      "execute(address[],uint256[],bytes[],bytes32)": {
        "details": "See {IGovernor-execute}."
      },
      "execute(uint256)": {
        "details": "See {IGovernorCompatibilityBravo-execute}."
      },
      "getActions(uint256)": {
        "details": "See {IGovernorCompatibilityBravo-getActions}."
      },
      "getReceipt(uint256,address)": {
        "details": "See {IGovernorCompatibilityBravo-getReceipt}."
      },
      "getVotes(address,uint256)": {
        "details": "See {IGovernor-getVotes}."
      },
      "getVotesWithParams(address,uint256,bytes)": {
        "details": "See {IGovernor-getVotesWithParams}."
      },
      "hasVoted(uint256,address)": {
        "details": "See {IGovernor-hasVoted}."
      },
      "hashProposal(address[],uint256[],bytes[],bytes32)": {
        "details": "See {IGovernor-hashProposal}. The proposal id is produced by hashing the ABI encoded `targets` array, the `values` array, the `calldatas` array and the descriptionHash (bytes32 which itself is the keccak256 hash of the description string). This proposal id can be produced from the proposal data which is part of the {ProposalCreated} event. It can even be computed in advance, before the proposal is submitted. Note that the chainId and the governor address are not part of the proposal id computation. Consequently, the same proposal (with same operation and same description) will have the same id if submitted on multiple governors across multiple networks. This also means that in order to execute the same operation twice (on the same governor) the proposer will have to change the description in order to avoid proposal id conflicts."
      },
      "name()": {
        "details": "See {IGovernor-name}."
      },
      "onERC1155BatchReceived(address,address,uint256[],uint256[],bytes)": {
        "details": "See {IERC1155Receiver-onERC1155BatchReceived}."
      },
      "onERC1155Received(address,address,uint256,uint256,bytes)": {
        "details": "See {IERC1155Receiver-onERC1155Received}."
      },
      "onERC721Received(address,address,uint256,bytes)": {
        "details": "See {IERC721Receiver-onERC721Received}."
      },
      "proposalDeadline(uint256)": {
        "details": "See {IGovernor-proposalDeadline}."
      },
      "proposalSnapshot(uint256)": {
        "details": "See {IGovernor-proposalSnapshot}."
      },
      "proposalThreshold()": {
        "details": "Part of the Governor Bravo's interface: _\"The number of votes required in order for a voter to become a proposer\"_."
      },
      "proposals(uint256)": {
        "details": "See {IGovernorCompatibilityBravo-proposals}."
      },
      "propose(address[],uint256[],string[],bytes[],string)": {
        "details": "See {IGovernorCompatibilityBravo-propose}."
      },
      "queue(uint256)": {
        "details": "See {IGovernorCompatibilityBravo-queue}."
      },
      "quorum(uint256)": {
        "details": "Returns the quorum for a block number, in terms of number of votes: `supply * numerator / denominator`."
      },
      "quorumDenominator()": {
        "details": "Returns the quorum denominator. Defaults to 100, but may be overridden."
      },
      "quorumNumerator()": {
        "details": "Returns the current quorum numerator. See {quorumDenominator}."
      },
      "quorumNumerator(uint256)": {
        "details": "Returns the quorum numerator at a specific block number. See {quorumDenominator}."
      },
      "quorumVotes()": {
        "details": "See {IGovernorCompatibilityBravo-quorumVotes}."
      },
      "relay(address,uint256,bytes)": {
        "details": "Relays a transaction or function call to an arbitrary target. In cases where the governance executor is some contract other than the governor itself, like when using a timelock, this function can be invoked in a governance proposal to recover tokens or Ether that was sent to the governor contract by mistake. Note that if the executor is simply the governor itself, use of `relay` is redundant."
      },
      "updateQuorumNumerator(uint256)": {
        "details": "Changes the quorum numerator. Emits a {QuorumNumeratorUpdated} event. Requirements: - Must be called through a governance proposal. - New numerator must be smaller or equal to the denominator."
      },
      "version()": {
        "details": "See {IGovernor-version}."
      },
      "votingDelay()": {
        "details": "Delay, in number of block, between the proposal is created and the vote starts. This can be increassed to leave time for users to buy voting power, or delegate it, before the voting of a proposal starts."
      },
      "votingPeriod()": {
        "details": "Delay, in number of blocks, between the vote start and vote ends. NOTE: The {votingDelay} can delay the start of the vote. This must be considered when setting the voting duration compared to the voting delay."
      }
    },
    "version": 1
  },
  "userdoc": {
    "kind": "user",
    "methods": {
      "COUNTING_MODE()": {
        "notice": "module:voting"
      },
      "votingDelay()": {
        "notice": "module:user-config"
      },
      "votingPeriod()": {
        "notice": "module:user-config"
      }
    },
    "version": 1
  },
  "storageLayout": {
    "storage": [
      {
        "astId": 3635,
        "contract": "contracts/dao/Governance.sol:MyGovernor",
        "label": "_name",
        "offset": 0,
        "slot": "0",
        "type": "t_string_storage"
      },
      {
        "astId": 3640,
        "contract": "contracts/dao/Governance.sol:MyGovernor",
        "label": "_proposals",
        "offset": 0,
        "slot": "1",
        "type": "t_mapping(t_uint256,t_struct(ProposalCore)3633_storage)"
      },
      {
        "astId": 3643,
        "contract": "contracts/dao/Governance.sol:MyGovernor",
        "label": "_governanceCall",
        "offset": 0,
        "slot": "2",
        "type": "t_struct(Bytes32Deque)15118_storage"
      },
      {
        "astId": 5230,
        "contract": "contracts/dao/Governance.sol:MyGovernor",
        "label": "_proposalDetails",
        "offset": 0,
        "slot": "4",
        "type": "t_mapping(t_uint256,t_struct(ProposalDetails)5225_storage)"
      },
      {
        "astId": 6161,
        "contract": "contracts/dao/Governance.sol:MyGovernor",
        "label": "_quorumNumerator",
        "offset": 0,
        "slot": "5",
        "type": "t_uint256"
      },
      {
        "astId": 6164,
        "contract": "contracts/dao/Governance.sol:MyGovernor",
        "label": "_quorumNumeratorHistory",
        "offset": 0,
        "slot": "6",
        "type": "t_struct(History)9984_storage"
      }
    ],
    "types": {
      "t_address": {
        "encoding": "inplace",
        "label": "address",
        "numberOfBytes": "20"
      },
      "t_array(t_address)dyn_storage": {
        "base": "t_address",
        "encoding": "dynamic_array",
        "label": "address[]",
        "numberOfBytes": "32"
      },
      "t_array(t_bytes_storage)dyn_storage": {
        "base": "t_bytes_storage",
        "encoding": "dynamic_array",
        "label": "bytes[]",
        "numberOfBytes": "32"
      },
      "t_array(t_string_storage)dyn_storage": {
        "base": "t_string_storage",
        "encoding": "dynamic_array",
        "label": "string[]",
        "numberOfBytes": "32"
      },
      "t_array(t_struct(Checkpoint)9989_storage)dyn_storage": {
        "base": "t_struct(Checkpoint)9989_storage",
        "encoding": "dynamic_array",
        "label": "struct Checkpoints.Checkpoint[]",
        "numberOfBytes": "32"
      },
      "t_array(t_uint256)dyn_storage": {
        "base": "t_uint256",
        "encoding": "dynamic_array",
        "label": "uint256[]",
        "numberOfBytes": "32"
      },
      "t_bool": {
        "encoding": "inplace",
        "label": "bool",
        "numberOfBytes": "1"
      },
      "t_bytes32": {
        "encoding": "inplace",
        "label": "bytes32",
        "numberOfBytes": "32"
      },
      "t_bytes_storage": {
        "encoding": "bytes",
        "label": "bytes",
        "numberOfBytes": "32"
      },
      "t_int128": {
        "encoding": "inplace",
        "label": "int128",
        "numberOfBytes": "16"
      },
      "t_mapping(t_address,t_struct(Receipt)6005_storage)": {
        "encoding": "mapping",
        "key": "t_address",
        "label": "mapping(address => struct IGovernorCompatibilityBravo.Receipt)",
        "numberOfBytes": "32",
        "value": "t_struct(Receipt)6005_storage"
      },
      "t_mapping(t_int128,t_bytes32)": {
        "encoding": "mapping",
        "key": "t_int128",
        "label": "mapping(int128 => bytes32)",
        "numberOfBytes": "32",
        "value": "t_bytes32"
      },
      "t_mapping(t_uint256,t_struct(ProposalCore)3633_storage)": {
        "encoding": "mapping",
        "key": "t_uint256",
        "label": "mapping(uint256 => struct Governor.ProposalCore)",
        "numberOfBytes": "32",
        "value": "t_struct(ProposalCore)3633_storage"
      },
      "t_mapping(t_uint256,t_struct(ProposalDetails)5225_storage)": {
        "encoding": "mapping",
        "key": "t_uint256",
        "label": "mapping(uint256 => struct GovernorCompatibilityBravo.ProposalDetails)",
        "numberOfBytes": "32",
        "value": "t_struct(ProposalDetails)5225_storage"
      },
      "t_string_storage": {
        "encoding": "bytes",
        "label": "string",
        "numberOfBytes": "32"
      },
      "t_struct(BlockNumber)11727_storage": {
        "encoding": "inplace",
        "label": "struct Timers.BlockNumber",
        "members": [
          {
            "astId": 11726,
            "contract": "contracts/dao/Governance.sol:MyGovernor",
            "label": "_deadline",
            "offset": 0,
            "slot": "0",
            "type": "t_uint64"
          }
        ],
        "numberOfBytes": "32"
      },
      "t_struct(Bytes32Deque)15118_storage": {
        "encoding": "inplace",
        "label": "struct DoubleEndedQueue.Bytes32Deque",
        "members": [
          {
            "astId": 15111,
            "contract": "contracts/dao/Governance.sol:MyGovernor",
            "label": "_begin",
            "offset": 0,
            "slot": "0",
            "type": "t_int128"
          },
          {
            "astId": 15113,
            "contract": "contracts/dao/Governance.sol:MyGovernor",
            "label": "_end",
            "offset": 16,
            "slot": "0",
            "type": "t_int128"
          },
          {
            "astId": 15117,
            "contract": "contracts/dao/Governance.sol:MyGovernor",
            "label": "_data",
            "offset": 0,
            "slot": "1",
            "type": "t_mapping(t_int128,t_bytes32)"
          }
        ],
        "numberOfBytes": "64"
      },
      "t_struct(Checkpoint)9989_storage": {
        "encoding": "inplace",
        "label": "struct Checkpoints.Checkpoint",
        "members": [
          {
            "astId": 9986,
            "contract": "contracts/dao/Governance.sol:MyGovernor",
            "label": "_blockNumber",
            "offset": 0,
            "slot": "0",
            "type": "t_uint32"
          },
          {
            "astId": 9988,
            "contract": "contracts/dao/Governance.sol:MyGovernor",
            "label": "_value",
            "offset": 4,
            "slot": "0",
            "type": "t_uint224"
          }
        ],
        "numberOfBytes": "32"
      },
      "t_struct(History)9984_storage": {
        "encoding": "inplace",
        "label": "struct Checkpoints.History",
        "members": [
          {
            "astId": 9983,
            "contract": "contracts/dao/Governance.sol:MyGovernor",
            "label": "_checkpoints",
            "offset": 0,
            "slot": "0",
            "type": "t_array(t_struct(Checkpoint)9989_storage)dyn_storage"
          }
        ],
        "numberOfBytes": "32"
      },
      "t_struct(ProposalCore)3633_storage": {
        "encoding": "inplace",
        "label": "struct Governor.ProposalCore",
        "members": [
          {
            "astId": 3625,
            "contract": "contracts/dao/Governance.sol:MyGovernor",
            "label": "voteStart",
            "offset": 0,
            "slot": "0",
            "type": "t_struct(BlockNumber)11727_storage"
          },
          {
            "astId": 3628,
            "contract": "contracts/dao/Governance.sol:MyGovernor",
            "label": "voteEnd",
            "offset": 0,
            "slot": "1",
            "type": "t_struct(BlockNumber)11727_storage"
          },
          {
            "astId": 3630,
            "contract": "contracts/dao/Governance.sol:MyGovernor",
            "label": "executed",
            "offset": 0,
            "slot": "2",
            "type": "t_bool"
          },
          {
            "astId": 3632,
            "contract": "contracts/dao/Governance.sol:MyGovernor",
            "label": "canceled",
            "offset": 1,
            "slot": "2",
            "type": "t_bool"
          }
        ],
        "numberOfBytes": "96"
      },
      "t_struct(ProposalDetails)5225_storage": {
        "encoding": "inplace",
        "label": "struct GovernorCompatibilityBravo.ProposalDetails",
        "members": [
          {
            "astId": 5199,
            "contract": "contracts/dao/Governance.sol:MyGovernor",
            "label": "proposer",
            "offset": 0,
            "slot": "0",
            "type": "t_address"
          },
          {
            "astId": 5202,
            "contract": "contracts/dao/Governance.sol:MyGovernor",
            "label": "targets",
            "offset": 0,
            "slot": "1",
            "type": "t_array(t_address)dyn_storage"
          },
          {
            "astId": 5205,
            "contract": "contracts/dao/Governance.sol:MyGovernor",
            "label": "values",
            "offset": 0,
            "slot": "2",
            "type": "t_array(t_uint256)dyn_storage"
          },
          {
            "astId": 5208,
            "contract": "contracts/dao/Governance.sol:MyGovernor",
            "label": "signatures",
            "offset": 0,
            "slot": "3",
            "type": "t_array(t_string_storage)dyn_storage"
          },
          {
            "astId": 5211,
            "contract": "contracts/dao/Governance.sol:MyGovernor",
            "label": "calldatas",
            "offset": 0,
            "slot": "4",
            "type": "t_array(t_bytes_storage)dyn_storage"
          },
          {
            "astId": 5213,
            "contract": "contracts/dao/Governance.sol:MyGovernor",
            "label": "forVotes",
            "offset": 0,
            "slot": "5",
            "type": "t_uint256"
          },
          {
            "astId": 5215,
            "contract": "contracts/dao/Governance.sol:MyGovernor",
            "label": "againstVotes",
            "offset": 0,
            "slot": "6",
            "type": "t_uint256"
          },
          {
            "astId": 5217,
            "contract": "contracts/dao/Governance.sol:MyGovernor",
            "label": "abstainVotes",
            "offset": 0,
            "slot": "7",
            "type": "t_uint256"
          },
          {
            "astId": 5222,
            "contract": "contracts/dao/Governance.sol:MyGovernor",
            "label": "receipts",
            "offset": 0,
            "slot": "8",
            "type": "t_mapping(t_address,t_struct(Receipt)6005_storage)"
          },
          {
            "astId": 5224,
            "contract": "contracts/dao/Governance.sol:MyGovernor",
            "label": "descriptionHash",
            "offset": 0,
            "slot": "9",
            "type": "t_bytes32"
          }
        ],
        "numberOfBytes": "320"
      },
      "t_struct(Receipt)6005_storage": {
        "encoding": "inplace",
        "label": "struct IGovernorCompatibilityBravo.Receipt",
        "members": [
          {
            "astId": 6000,
            "contract": "contracts/dao/Governance.sol:MyGovernor",
            "label": "hasVoted",
            "offset": 0,
            "slot": "0",
            "type": "t_bool"
          },
          {
            "astId": 6002,
            "contract": "contracts/dao/Governance.sol:MyGovernor",
            "label": "support",
            "offset": 1,
            "slot": "0",
            "type": "t_uint8"
          },
          {
            "astId": 6004,
            "contract": "contracts/dao/Governance.sol:MyGovernor",
            "label": "votes",
            "offset": 2,
            "slot": "0",
            "type": "t_uint96"
          }
        ],
        "numberOfBytes": "32"
      },
      "t_uint224": {
        "encoding": "inplace",
        "label": "uint224",
        "numberOfBytes": "28"
      },
      "t_uint256": {
        "encoding": "inplace",
        "label": "uint256",
        "numberOfBytes": "32"
      },
      "t_uint32": {
        "encoding": "inplace",
        "label": "uint32",
        "numberOfBytes": "4"
      },
      "t_uint64": {
        "encoding": "inplace",
        "label": "uint64",
        "numberOfBytes": "8"
      },
      "t_uint8": {
        "encoding": "inplace",
        "label": "uint8",
        "numberOfBytes": "1"
      },
      "t_uint96": {
        "encoding": "inplace",
        "label": "uint96",
        "numberOfBytes": "12"
      }
    }
  }
}